:020000040800F2
:1000000050580024A5030008F7660008055F0008A3
:10001000F5660008290A0008DD85000800000000D8
:10002000000000000000000000000000E1020008E5
:100030005D0C0008000000003D0300085D7C000826
:10004000BF030008BF030008BF030008BF03000888
:10005000BF030008BF030008BF030008BF03000878
:10006000BF030008BF030008BF0300082D0A0008F3
:10007000BF030008BF030008BF030008BF03000858
:10008000BF030008BF030008BF030008BF03000848
:10009000BF030008BF030008BF030008BF03000838
:1000A000BF030008BF030008BF030008BF03000828
:1000B000BF030008BF030008BF030008BF03000818
:1000C000BF030008BF030008BF030008BF03000808
:1000D000BF030008BF030008BF030008BF030008F8
:1000E000BF030008BF03000800000000BF030008B2
:1000F000BF030008BF030008BF030008BF030008D8
:10010000BF030008BF030008BF030008BF030008C7
:10011000BF030008BF030008BF030008BF030008B7
:10012000BF030008BF030008BF030008BF030008A7
:10013000BF030008BF030008BF030008BF03000897
:1001400000000000000000000000000000000000AF
:10015000BF030008BF030008BF030008BF03000877
:10016000BF030008BF030008BF030008BF03000867
:10017000BF030008BF030008BF0300080000000021
:10018000BF030008BF030008BF030008BF03000847
:10019000BF030008BF030008BF030008BF03000837
:1001A000BF030008BF030008390A00080000000070
:1001B000BF030008BF030008BF030008BF03000817
:1001C000BF030008BF03000800000000000000009B
:1001D0000000000000000000BF0300080000000055
:1001E000000000000000000000000000000000000F
:1001F0000000000000000000BF030008BF0300086B
:10020000BF030008BF03000800000000BF03000890
:10021000BF030008BF030008BF030008BF030008B6
:10022000BF03000800000000BF030008000000003A
:10023000BF030008BF03000800000000BF03000860
:10024000BF030008BF030008BF030008BF03000886
:10025000BF030008BF030008BF030008BF03000876
:10026000BF030008BF030008BF030008BF03000866
:10027000BF030008BF030008BF0300080000000020
:10028000BF030008BF030008BF030008BF03000846
:1002900000000000BF030008BF03000800000000CA
:1002A00000000000BF030008BF030008BF030008F0
:1002B000BF030008BF030008BF030008BF03000816
:1002C000BF030008E57D0008BF030008DFF80CD07D
:1002D00000F0C4FA004800479DA5000850580024CB
:1002E0002D4B19680868B0E8F04F80F30988BFF318
:1002F0006F8F4FF0000080F31188704700000000FE
:1003000008480068006880F308884FF0000080F318
:10031000148862B661B6BFF34F8FBFF36F8F00DFF3
:1003200000BF00BF08ED00E0DFF80C00016841F4F9
:1003300070010160704700BF88ED00E0EFF30980B5
:10034000BFF36F8F144B1A681EF0100F08BF20ED1B
:10035000108A20E9F04F106009B44FF0500072B6D7
:1003600080F31188BFF34F8FBFF36F8F62B60AF02F
:1003700025FD4FF0000080F3118809BC196808685A
:10038000B0E8F04F1EF0100F08BFB0EC108A80F3F9
:100390000988BFF36F8F704710000024EFF30580CA
:1003A000704700000648804706480047FEE7FEE722
:1003B000FEE7FEE7FEE7FEE7FEE7FEE7FEE7FEE715
:1003C000257D0008CD0200082DE9F05F05460020DC
:1003D00092469B4688460646814640241BE02846B6
:1003E00041464746224600F070F853465A46C01A26
:1003F000914110D311461846224600F057F82D1AA5
:1004000067EB01084F4622460120002100F04EF81C
:1004100017EB00094E41201EA4F10104DFDC484621
:1004200031462A464346BDE8F09F40EA01039B0758
:1004300003D009E008C9121F08C0042AFAD203E059
:1004400011F8013B00F8013B521EF9D27047D2B2BD
:1004500001E000F8012B491EFBD270470022F6E7AD
:1004600010B513460A4604461946FFF7F0FF20462A
:1004700010BD421C10F8011B0029FBD1801A7047E7
:1004800030B50B46014600202022012409E021FA64
:1004900002F59D4205D303FA02F5491B04FA02F561
:1004A0002844151EA2F10102F1DC30BD202A04DB34
:1004B000203A00FA02F1002070479140C2F1200377
:1004C00020FA03F3194390407047202A04DB203AB6
:1004D00021FA02F00021704721FA02F3D040C2F164
:1004E000200291400843194670472DE9FE4F80468F
:1004F00081EA0300C00F0C46009021F0004123F078
:100500000045B8EB0200A94105D24046214690467D
:100510001C460B46024623F00040104347D0270DEF
:10052000C7F30A00C3F30A510290401A0190402811
:100530006BDAC3F3130040F4801B0098924620B19D
:100540000023D2EB030A63EB0B0B01985946C0F171
:1005500040025046FFF7AAFF06460D465046594650
:10056000019A00F08DF910EB08006141002487EA40
:10057000115284EAE7731A4340D0009A62B3019A99
:10058000012A4FEA075215DC001B61EB02014FF014
:10059000004202EA0752CDE90042001C41F58011F9
:1005A00032462B4600F08DF903B0BDE8F08F40468F
:1005B0002146F9E7001B61EB0201001C41F58013A5
:1005C00000185B412018A2F5001747EB030140EA31
:1005D000D570B6196D4111E06D084FEA360645EA4F
:1005E000C0754FEA0752001B61EB0201001C41F588
:1005F000801149084FEA30000019514132462B461C
:1006000003B0BDE8F04F00F04DB900980122400062
:100610000023D0EB020263EBE073009821464FEA1F
:10062000E074B8EB000061EB0401E9E783F00043FC
:100630005BE781F0004158E72DE9FE4F81EA0304B2
:1006400004F0004421F0004100944FF0000B23F02F
:10065000004350EA01045ED052EA03045BD0C3F3C6
:100660000A54C1F30A552C44A4F2F3340194A0FBBC
:100670000254C1F3130141F48011C3F3130343F493
:10068000801301FB024400FB034E840A970A44EAEC
:10069000815447EA8357A4FB076802958D0A05FB3E
:1006A00007854FEA932C04FB0C542705029D4FEA63
:1006B000065847EA1637B5EB08056EEB070C870EB0
:1006C000920E47EA811742EA8312A7FB0201B6EBBA
:1006D0000B0164EB00042B0D43EA0C335E1844EB72
:1006E0001C50DA465146E7FB0201C5F313044FEAFA
:1006F0000B3343EA14534FEA0432019C43EA0603E6
:10070000A4F10C040294009CCDE900B400F0D9F8E7
:1007100003B0BDE8F08F00200146F9E72DE9F04D68
:1007200081EA030404F0004B21F0004514464FF029
:10073000000A23F0004150EA050220D054EA0102E9
:100740001DD0C5F30A570246C5F31303C1F31300C6
:10075000C1F30A5640F4801543F48013A7EB060852
:10076000101BD64608F2FD3873EB050002D308F1E2
:10077000010801E092185B41B8F1000F03DA002094
:100780000146BDE8F08D00204FF4801106468446F6
:100790000EE0171B73EB050705D3121B63EB050374
:1007A00006434CEA010C49084FEA300092185B41BD
:1007B00050EA0107EDD152EA030012D082EA0400A8
:1007C00083EA0501084305D0101BAB4106D2012284
:1007D000002306E000224FF0004302E06FF0010228
:1007E00053101AEB06004CEB085110EB0A0041EBDA
:1007F0000B01BDE8F04D00F055B8C1F30A52C1F34A
:10080000130140F2FF3341F480119A4202DA0020D2
:100810000146704740F233439A42A2F2334202DC6F
:100820005242FFF752BEFFF741BE000030B5041E32
:1008300071F1000404DB4FF00044404264EB01011D
:10084000141E73F1000405DB1C464FF000435242B6
:1008500063EB0403994208BF904230BD064C074D3C
:1008600006E0E06840F0010394E807009847103480
:10087000AC42F6D3FFF72EFDF46C0408146D0408A7
:10088000202A06DBCB17203A41FA02F043EAE07354
:1008900006E041FA02F3D040C2F120029140084341
:1008A0001946704710B5141E73F1000408DA401C95
:1008B00041F1000192185B411A4301D120F001007F
:1008C00010BD2DE9F04D92469B4611B1B1FA81F26F
:1008D00002E0B0FA80F220329046FFF7E7FD0446CE
:1008E0000F4640EA0A0041EA0B0153465A460843C4
:1008F00013D0114653EA010019D0C8F14002504606
:10090000FFF7E3FD05460E46504659464246FFF7BF
:10091000CDFD084305D0012004E020463946BDE85E
:10092000F08D0020054346EAE0762C4337430A98D1
:100930006305E40AA0EB08000022FD0A44EA4754DC
:100940000A3002D500200146E9E701051019694186
:10095000DDE9084500196941BDE8F04DA2E7000056
:1009600010B504480124022101F09CFA00B10024D2
:10097000204610BD000802580146014804F0BEBBE5
:100980002C340024044810B504F0CAFB042801D01C
:10099000012010BD002010BD2C34002410B500F043
:1009A00015F8012801D0022010BD074804F034FCDE
:1009B000040006D104484FF4804104F0FDF900B171
:1009C0000124204610BD00002C34002408B501206D
:1009D0008DF80000FFF7C4FF10B900208DF800006B
:1009E0009DF8000008BD000038B5002400931346B0
:1009F0000A460146034804F035FD00B101242046B3
:100A000038BD00002C34002438B500240093134670
:100A10000A460146034804F007FE00B101242046BF
:100A200038BD00002C340024FEE70000014800F02F
:100A30004DBB0000B4330024014800F055BA00005B
:100A40002C2F0024294A016891423AD0274A1832B3
:100A5000914236D0254A3032914232D0234A483230
:100A600091422ED0214A603291422AD01F4A7832D8
:100A7000914226D01D4A9032914222D01B4AA83280
:100A800091421ED01A4A91421BD0194A1832914203
:100A900017D0174A3032914213D0154A483291424A
:100AA0000FD0134A603291420BD0114A78329142F2
:100AB00007D00F4A9032914203D00D4AA83291429A
:100AC00011D1CAB21823103AB2FBF3F26FF3090145
:100AD000032A02F00703074AD25CC26500D9091D48
:100AE00081650846704721F0FF01F9E710000240D8
:100AF0001004024050AF000830B5224A01230168BB
:100B00009142CAB21BD01F4C1434A14217D01D4CC5
:100B10002834A14213D01B4C3C34A1420FD0194CB5
:100B20005034A1420BD0174C6434A14207D0154C6D
:100B30007834A14203D0134C8C34A1420CD114213F
:100B4000114C083AB2FBF1F10F4A803201F01F0557
:100B500004EB8101AB4010E00C4D1824103A0D4419
:100B6000B2FBF4F1A82D00D80831094A01F01F04A6
:100B700002EB8101064AA3408032603080E80E001B
:100B800030BD00000854025800580258F0FBFDBF69
:100B90000008024010B50279531E072B2DD8174CC0
:100BA0000168A1421BD0154C1434A14217D0134C3C
:100BB0002834A14213D0114C3C34A1420FD00F4C29
:100BC0005034A1420BD00D4C6434A14207D00B4CE1
:100BD0007834A14203D0094C8C34A14203D1084996
:100BE000074C443102E00749064C443104EB8202D1
:100BF000C0E91B2101219940416710BD08540258EA
:100C0000FC580258FC08024010B583694FF0C074CC
:100C1000826A0146002053B1B3F5005F15D072B16E
:100C2000012A0CD0022A0AD0032A09D104E01AB101
:100C3000012A06D0022A03D1C96AC90100D50120C0
:100C400010BDC96AA142FAD010BD002AF7D0012A0E
:100C5000F2D0022AF3D0032AF3D010BD704700006F
:100C6000064802A107F0A2FC72B6FEE74572726F59
:100C7000725F48616E646C65720D0A007031002409
:100C8000002200F001B800000E4B70B505465C7AFA
:100C90000120002C14D15E7A03F108009C555E7A85
:100CA00003EB860675605D7A2A54587A421C5A72A4
:100CB0003A232F22303008704B7020468A70CC7057
:100CC00070BD000044380024F0B5D1E90843CD6977
:100CD0000A68C2B10268254322F4F84213431D4357
:100CE0000560D1E90125D1E903364C692A434568FD
:100CF000334389691A43EB0B2243DB030A431A434C
:100D000042600020F0BDD1E9012ED1E9036CD1E9A8
:100D1000057142EA0E0246EA0C0632433A430A43A0
:100D200001682A4322431A436FF30E010A4302600B
:100D3000E7E7426943F6FE739A4342EA41014161A3
:100D40000020704770B591E81C00C9686FF01F055E
:100D500006691A4305EB441444EA41210A4306EAB2
:100D600045431A430261002070BD00002DE9F04F99
:100D70008B8A6FF00F05264C4FF07F4BD1F80C900B
:100D800004EB03536FF0FF044FEA042A1AB386689A
:100D90004FEA09321F4FA2F580521A433E403243B8
:100DA0008260D1E900278E68521E05EB07150F8A75
:100DB0002A43C56804EB06240E7E0AEB0743224350
:100DC0001A430BEB06610A4305F070431A43C260F5
:100DD0000020BDE8F08F91E804110F4E521E0F8ADB
:100DE00005EB08152A4304EB0C2C06EB09350E7EA7
:100DF00042EA0C022A4385680AEB074422431A435D
:100E00000BEB06610A4305F070431A438260DFE78B
:100E10000000F0FFFF0F0FFF00F0FFFF7047000022
:100E2000F0B590F86020012A22D0C1EBC102012761
:100E300080F86070022380F8613000EB8202284D58
:100E4000138F168EB2F83CC0D46A1B05283244EAD0
:100E5000064643EA4C530A2C46EA03060AD0092CFC
:100E600008D0137B46EA036349B10B2C1AD01DE06E
:100E70000220F0BDD36803F07F433343F4E70168F9
:100E80004C6AAC431C434C62016813688B61516827
:100E90000A2901D009291BD1D168026821F07F41BC
:100EA000916215E0118B0F4D43EA81430168CC69D3
:100EB000AC431C43CC61016813680B6151680A297B
:100EC00001D0092904D1D168026821F07F41116263
:100ED000002180F8617080F860100846F0BD0000C5
:100EE0000F0033FF0F003FFF2DE9F0470446006875
:100EF00000274FF004084FF0010946680568F10724
:100F000014D0E90512D5036823F480730360606E82
:100F100040F0010060662068C0F8089084F86180A5
:100F200084F86070616A09B120468847B00615D51B
:100F3000A80413D520682022036823F4005303601B
:100F400020688260606E40F00200606684F8618014
:100F500084F86070616A09B120468847300715D56A
:100F6000280513D520680822036823F40063036072
:100F700020688260606E40F00400606684F86180E2
:100F800084F86070616A09B12046884770070CD503
:100F900068050AD52068026822F480620260206831
:100FA000C0F80880204600F071F8B00713D5A805F6
:100FB00011D520680222036823F4007303602068BF
:100FC0008260606E606684F8619084F86070216A67
:100FD00009B120468847F00612D5E80410D52068EC
:100FE000016821F480510160226810219160616ED6
:100FF000616684F86190204684F86070FFF70EFF08
:10100000BDE8F0872DE9F041040004D094F86100B8
:10101000002518B107E00120BDE8F081204684F8E2
:10102000605000F035F8184E022084F8610001236A
:10103000D4E90010D4F81CC040F207120F6840EA4F
:101040000C003740384308602068A769A168466BE8
:1010500039439643314341632068E268016C6FF382
:101060000F01114301642068218AA28A466B090599
:1010700041EA425126F4401211434163656684F807
:1010800061300020C8E70000BFFFF8FF7047000094
:1010900008B500680B49884212D10B48016841F03D
:1010A00010010160006800220A2100F01000009089
:1010B0005A2001F073FABDE808405A2001F060BAE6
:1010C00008BD000000100052D44402582DE9FC5F16
:1010D0000446F74E0020DFF8D88300904FF41652F4
:1010E000F44808F11808A56DDFF8C493DFF8C0A331
:1010F000016809F1300920680AF1480AB1FBF2F1F0
:10110000B04201912F68D5F800C0DFF8ACB335D0FC
:101110004146884232D0484530D050452ED05845BF
:101120002CD0E5491831884228D0E3493031884233
:1011300024D0E1494831884220D0E04988421DD07E
:10114000DE491831884219D0DC493031884215D047
:10115000DA494831884211D0DFF860E30EF1600EC1
:1011600070450BD0D54A7832904207D0D34B90339C
:10117000984203D0D149A83188427DD194F85C20AF
:10118000082102F01F0201FA02F23A424AD0B042AC
:1011900032D0404530D048452ED050452CD058450F
:1011A0002AD0C54A1832904226D0C34A30329042E3
:1011B00022D0C14A483290421ED0C04A90421BD031
:1011C000BE4A1832904217D0BC4A3032904213D0F7
:1011D000BA4A483290420FD0B84A603290420BD09F
:1011E000B64A7832904207D0B44A9032904203D047
:1011F000B24AA832904203D1026802F0040202E02F
:10120000026802F008026AB1026822F00402026079
:1012100094F85C0000F01F008140A960606D40F010
:101220000100606594F85C00012100F01F0081401E
:10123000394240D02068B04234D0404532D0484591
:1012400030D050452ED058452CD09B4A1832904271
:1012500028D0994A3032904224D0974A483290425E
:1012600020D0964A90421DD0944A1832904219D00C
:10127000924A3032904200E0AFE113D08F4A4832B8
:1012800090420FD08D4A603290420BD08B4A783218
:10129000904207D0894A9032904203D0874AA832C0
:1012A00090427DD1406910F0800F04D0A960606D3C
:1012B00040F00200606594F85C00042100F01F001B
:1012C000814039423ED02068B04232D0404530D0D3
:1012D00048452ED050452CD058452AD0764A183251
:1012E000904226D0744A3032904222D0724A48321C
:1012F00090421ED0714A90421BD0704A18329042E0
:1013000017D06E4A3032904213D06C4A4832904225
:101310000FD06A4A603290420BD0684A78329042CD
:1013200007D0664A9032904203D0644AA832904275
:101330004ED1006810F0020F04D0A960606D40F03B
:101340000400606594F85C00102100F01F008140EB
:10135000394258D02068B04234D0404532D0484558
:1013600030D050452ED058452CD0534A1832904298
:1013700028D0514A3032904224D04F4A48329042CD
:1013800020D04E4A90421DD04C4A1832904219D07B
:101390004A4A3032904215D0484A4832904200E0E2
:1013A00014E00FD0454A603290420BD0434A783265
:1013B000904207D0414A9032904203D03F4AA8322F
:1013C000904207D1006800F0080006E0006872E76C
:1013D0000068B7E7006800F00400A0B1A9602068C9
:1013E0000168490304D50068000308D5A16C07E033
:1013F0000168C90503D4016821F008010160216C6E
:1014000009B12046884794F85C00202100F01F00B5
:101410008140394279D02068B04232D0404530D046
:1014200048452ED050452CD058452AD0224A183253
:10143000904226D0204A3032904222D01E4A483272
:1014400090421ED01D4A90421BD01C4A1832904236
:1014500017D01A4A3032904213D0184A483290427C
:101460000FD0164A603290420BD0144A7832904224
:1014700007D0124A9032904203D0104AA8329042CC
:1014800003D1006800F0100002E0006800F00200E4
:10149000B0B3A96094F835000428206801680FD023
:1014A00049037ED5006800032BD4616C2AE000005C
:1014B000100002405C000024700002401004024052
:1014C00021F0160101602068416921F0800141612D
:1014D000206C08B9A06C20B12068016821F00801D7
:1014E000016094F85C303F21012003F01F030022CB
:1014F0009940A96084F8350084F83420216D65E0B6
:1015000003E0E16B09B120468847606D00287DD07B
:10151000606DC00759D02068042184F83510B042AE
:101520002BD0404529D0484527D0504525D0584597
:1015300023D09D49884220D09B49183188421CD035
:1015400099493031884218D09849884215D0974936
:101550001831884211D09549303188420DD09349D5
:101560004831884209D091496031884205D08F497D
:101570007831884201D08D499031016821F0010114
:10158000016020680099019A491C0091914202D89B
:101590000168C907F6D10068C00710D003200FE02A
:1015A000FFE70168C905ACD403680121002223F0DC
:1015B0001003036084F8351084F83420A1E701207B
:1015C00084F83500002084F83400E16C00291DD037
:1015D00002B02046BDE8F05F0847754988421DD03B
:1015E00073491431884219D071492831884215D085
:1015F0006F493C31884211D06D49503188420DD03D
:101600006B496431884209D0694900E084E078314F
:10161000884203D066498C3188427DD194F85C8041
:101620000427016808F01F0807FA08F717EA0C0FEB
:10163000009746D04F0744D500980F04686003D543
:10164000C8033CD4A16CC1E7880638D42068B042F6
:101650002DD055496039884229D0484527D050457A
:1016600025D0584523D05049884220D04E491831C2
:1016700088421CD04C493031884218D04B498842AE
:1016800015D04A491831884211D048493031884232
:101690000DD046494831884209D0704507D0904264
:1016A00005D0984203D04149A831884203D101684E
:1016B00021F0080102E0016821F004010160216CC1
:1016C00084E7022707FA08F717EA0C0F00974ED0B5
:1016D0008F074CD500980F04686003D5C80344D425
:1016E000616C73E7880640D42068B0422FD02E4941
:1016F000603988422BD0484529D0504527D05845DD
:1017000025D02949884222D02749183188421ED045
:1017100025493031884200E044E018D0234988420E
:1017200015D022491831884211D0204930318842E1
:101730000DD01E494831884209D0704507D09042EB
:1017400005D0984203D01949A831884203D10168D5
:1017500021F0140102E0016821F00A010160012179
:1017600084F83510002084F83400E16B2EE708225D
:1017700002FA08F212EA0C0F14D0090712D5016818
:1017800021F00E01016094F85C100120002201F0AC
:101790001F0100FA01F16960606584F8350084F882
:1017A000342012E7BDE8FC9F88000240100402408C
:1017B000085402582DE9F05F044600F085FB002C28
:1017C00007467DD0E24E022120684FF00308DFF883
:1017D00084934FF00005DFF880A3B042DFF87CB3BC
:1017E00034D0DB4A1832904230D048452ED0504594
:1017F0002CD058452AD0D94A1832904226D0D74A00
:101800003032904222D0D54A483290421ED0D44A3B
:1018100090421BD0D24A1832904217D0D04A303270
:10182000904213D0CE4A483290420FD0CC4A603218
:1018300090420BD0CA4A7832904207D0C84A9032C0
:10184000904203D0C64AA83290427DD184F8351028
:10185000B04284F834502ED0BD49183188422AD085
:10186000484528D0504526D0584524D0BB4918318A
:10187000884220D0B949303188421CD0B74948311C
:10188000884218D0B649884215D0B54918318842E7
:1018900011D0B349303188420DD0B1494831884226
:1018A00009D0AF496031884205D0AD4978318842CE
:1018B00001D0AB499031016821F00101016008E0DD
:1018C00025E100BF00F000FBC01B052801D9202145
:1018D0001AE120680068C007F4D1D4E90203216846
:1018E000103418438E4694E88410D4E9033809680C
:1018F0003A4310439B4A40EA0C0067691843114081
:10190000103C40EA0800042F40EA010003D1D4E96A
:101910000B12114308436168A1F12902052A0BD972
:10192000163A032A08D9083A012A05D9083A032A9F
:1019300002D97439032901D840F48010CEF8000090
:101940002068676A406900E020E0042F20F007006B
:1019500047EA00070DD1D4E90A01074349B12046FF
:10196000FFF752F928B140206065012184F8351055
:10197000CDE0206847612046FFF764F894F85C20CA
:101980003F2102F01F029140816055E0764A90426B
:101990001BD0754B1433984217D0734B28339842A1
:1019A00013D0714B3C3398420FD06F4B5033984259
:1019B0000BD06D4B6433984207D06B4B7833984211
:1019C00003D0694B8C3398427ED184F8351084F86B
:1019D0003450664B0168A26801EA030E402A74D0B5
:1019E000802A73D05FF00002D4E90378D4E905318E
:1019F00042EAD70242EAD8085B4AD4E9077C48EABF
:101A0000D30848EAD10141EAD701524241EA1C1108
:101A1000142341EA0E01016020681044B0FBF3F08A
:101A20008000E0652046FFF70DF894F85C20012166
:101A300002F01F02914041602068B04257D04449F3
:101A40001831884253D0484551D050454FD0584561
:101A50004DD042491831884249D0404930318842FE
:101A600045D03E494831884241D03D4988423ED028
:101A70003B49183188423AD039493031884236D012
:101A800037494831884232D03549603188422ED0BA
:101A90003349783188422AD031499031884226D062
:101AA0002F49A831884222D02F4988421FD02E4981
:101AB000143188421BD02C492831884217D02A493A
:101AC0003C31884213D002E01DE017E018E02649BF
:101AD000503188420BD024496431884207D02249D2
:101AE0007831884203D020498C31884229D1204660
:101AF000FFF702F8A06880280CD00CE0102273E7F2
:101B00004FF4804270E74021616584F83580012000
:101B1000BDE8F09F6560216E20790860D4E9190165
:101B200041606068401E072808D82046FFF732F859
:101B3000E06E0560D4E91C01416002E0E5662567BE
:101B400065670120656584F835000020E0E7000046
:101B50001000024040000240580002407000024065
:101B6000100402403F8010FE085402580F00FEFF90
:101B700070B5044600F0A8F90546601C02D0044880
:101B80000078044400F0A0F9401BA042FAD370BDD5
:101B900050000024F0B5B5B014216846FEF75EFC95
:101BA0003148016800295DD101210160B82106A8F2
:101BB000FEF754FC002018904FF080710446CDE9E8
:101BC000061006A801F0ACFC08B1FFF749F8274859
:101BD000016841F4805101600068022603276946CC
:101BE00000F4805005904FF63F00CDE900062048F4
:101BF0000C25CDE90247049500F046F81D486946DA
:101C0000CDE90056CDE90247049500F03DF8A0204B
:101C10006946CDE900061848CDE90247049500F071
:101C200033F848F237106946CDE900061348CDE98C
:101C30000247049500F028F84EF683706946CDE916
:101C400000060F48CDE90247049500F01DF84CF25C
:101C500003706946CDE900060A48CDE902470495BC
:101C600000F012F835B0F0BD00000024D444025852
:101C700000140258000802580000025800180258C8
:101C800000100258000C02582DE9F84F03247A4D39
:101C900000234FF001094FF0B04B4FF00F0AE4E082
:101CA00009FA03F6324078D00F7907F00307012FC5
:101CB00001D0022F1AD187684FEA430ED1F80CC029
:101CC00004FA0EF827EA08070CFA0EFC4CEA070C97
:101CD000C0F808C0476891F804C0B743CCF3001CB3
:101CE0000CFA03FC4CEA070CC0F804C00E79F6436A
:101CF000B6070BD0C6684FEA43088F6804FA08FCA1
:101D000026EA0C0607FA08F73743C7600E7906F093
:101D10000306022E12D1DE080F694FEA437C00EB66
:101D20008606B646366A4FEADC6C0AFA0CF807FA01
:101D30000CF726EA08063743CEF820700F790668BC
:101D40004FEA430807F0030704FA08FC07FA08F70C
:101D500026EA0C06374307604E6816F4403F1CD055
:101D6000464E376847F00207376036689F0706F02F
:101D70000206009623F0030606F1B046B6463F0F72
:101D8000D6F80864DFF8F8800AFA07FC404526EA2E
:101D90000C0603D14FF0000C3AE065E0DFF8E4C038
:101DA000604502D14FF0010C32E0DFF8DCC0604545
:101DB00002D14FF0020C2BE0DFF8D0C0604502D119
:101DC0004FF0030C24E0DFF8C8C0604502D14FF0AB
:101DD000040C1DE0DFF8BCC0604502D14FF0050CDB
:101DE00016E0DFF8B4C0604502D14FF0060C0FE0FA
:101DF000DFF8A8C0604502D14FF0070C08E0DFF81B
:101E0000A0C0604502D14FF0090C01E04FF00A0C70
:101E10000CFA07FC4CEA060CCEF808C44F68DBF855
:101E20000060FF0226EA020600D516435F46CBF8A3
:101E30000060D1F804C0DBF804605FEA8C2C26EA6D
:101E4000020600D516437E606E684F6826EA0206D9
:101E5000BF0300D516436E602E684F6826EA02065F
:101E6000FF0300D516432E605B1C0A6832FA03F6A6
:101E70007FF416AFBDE8F88F80000058F444025894
:101E8000000002580004025800080258000C0258D2
:101E9000001002580014025800180258001C025882
:101EA000002402580069084000D0012070474269B0
:101EB00021EA02030A4043EA0241816170470AB104
:101EC000816170470904FBE70148806870470000A2
:101ED0005000002430B590F84120202A24D190F8F9
:101EE0004020012A20D0012380F84030242280F8AD
:101EF0004120202300240268156825F001051560A3
:101F00000268156825F480551560026815680D4350
:101F1000156001680A6842F001020A6080F84130E9
:101F200080F84040002030BD022030BD30B590F830
:101F30004120202A22D190F84020012A1ED00123DE
:101F400080F84030242280F84120202400250268B7
:101F5000136823F0010313600268136823F47063AD
:101F600043EA0121116001680A6842F001020A6037
:101F700080F8414080F84050002030BD022030BD44
:101F800070B5040004D094F84100002510B106E0BB
:101F9000012070BD204684F8405000F04DF8242008
:101FA00084F841002068016821F001010160D4E952
:101FB000001020F0706008612068816821F4004101
:101FC0008160E06821680128A06806D040F40440E0
:101FD0008860E068022803D006E040F40040F7E79C
:101FE00021684FF40060486020212068114A43684E
:101FF000134343602068C26822F40042C26054F870
:10200000106B0DCC104340EA0320F06054F81C3CE8
:10201000D4E900021043186054F81C0D026842F025
:1020200001020260656484F84110256384F842501F
:10203000002070BD00800002F0B5B5B00446142148
:102040002EA8FEF70BFAB8216846FEF707FA2F49CB
:102050001226206804272C4D0024884227D1002016
:1020600020940821CDE90010684601F059FA08B122
:10207000FEF7F6FD286840F00200286028682EA9C7
:1020800000F0020033904FF440702E90CDE92F64A1
:102090001F48CDE93147FFF7F7FD1B4808300168BD
:1020A00041F400110160006800F4001029E01949B2
:1020B000884227D1002025941021CDE900106846E0
:1020C00001F02EFA08B1FEF7CBFD286840F00800B9
:1020D000286028682EA900F0080033904FF4405083
:1020E0002E90CDE92F640C48CDE93147FFF7CCFDA8
:1020F00005481430016841F080010160006800F07B
:102100008000339035B0F0BDE044025800540040E8
:1021100000040258001C0058000C02580248816854
:10212000027811448160704750000024032010B5EC
:1021300000F054FA02F034F80F4A1049146813689A
:10214000C4F3032203F00F038A5CC95C02F01F0290
:1021500001F01F01D0400A4A20FA01F1116009493B
:1021600008600F2000F010F808B1012010BD00F049
:10217000F9F9002010BD00001844025880AF000893
:10218000600000245C00002410B5102804468AB0CA
:102190002AD200220146A12000F000FAA12000F07E
:1021A000EFF9154804601548016841F0807101603D
:1021B000006808A900F080700990684601F07CFF73
:1021C00001F0DCFF0E49400000220E4CB0FBF1F1A3
:1021D0000D4840F2E7330460C0E90332491EC0E90C
:1021E000011203F06FFB10B101200AB010BD0648C8
:1021F00003F0AEFBF9E7000054000024EC44025861
:1022000040420F0000E00040F43400242DE9F0418A
:10221000044690F8A00016460F4601281DD001255F
:1022200084F8A050022084F8A10006EB860000EBA1
:10223000C600342204EB80003830FEF7F6F8324650
:102240003946204603F05FFE216800204D6284F885
:10225000A15084F8A000BDE8F0810220FBE7000057
:102260002DE9F041040004D094F8A100002518B134
:1022700007E00120BDE8F081204684F8A05000F07E
:102280006BF83448022184F8A110012202CC8B693A
:1022900023F070438B6194E84A001943E3681E43BE
:1022A00054F8043D31439E693143996121688B683C
:1022B00003408B602168A68AA7698B683B4343EA89
:1022C00006438B602168CB680340CB602168A38BF9
:1022D000276ACE683E4346EA0346CE6021680B6912
:1022E00003400B612368A68CA76A1969394341EA48
:1022F0000641196121684B6903404B612068A38D39
:10230000266B4169314341EA03414161236894F8F6
:10231000351094F83600DE6A000406F07F46DE626F
:10232000236840EA012094F83460D96A31430143BC
:10233000D9622068416B41F00601416320688169E0
:1023400041F001018161C4F8A45084F8A12000206B
:1023500090E7000000F800F02DE9F04FB5B004461A
:1023600014216846FEF77AF8B82106A8FEF776F839
:102370007449206888427DD14FF004094FF001086C
:102380000023CDF848804FF440651C46CDE9108904
:10239000CDE9155342041793CDE91389CDE90623FE
:1023A00006A801F0BDF808B1FEF75AFC66480168BE
:1023B00041F008010160006800F0080005906248E3
:1023C000001F016841F010010160016801F0100177
:1023D0000591016841F001010160016801F001010E
:1023E0000591016841F004010160016801F00401F8
:1023F0000591016841F002010160016801F00201EC
:102400000591016841F040010160016801F040015F
:102410000591016841F00801016000680E2602255F
:10242000694600F0080005904FF482500090CDE915
:1024300001544648CDE90346FFF726FC49F656000D
:102440000090CDE9015442486946CDE90346FFF7C3
:102450001BFC09274FF0080ACDF800A06946CDE91A
:1024600001543B48CDE90347FFF70EFC41F2F00071
:10247000009000E062E0DFF8DCB06946CDE901548D
:10248000CDE903465846FFF7FFFBCDF800806946CB
:10249000DFF8C480CDE90154CDE903474046FFF79A
:1024A000F3FB40F602400090CDE90154CDE903462C
:1024B00069464046FFF7E8FB4FF4C1400090CDE984
:1024C000015426486946CDE90346FFF7DDFB4FF48A
:1024D000C0600294CDE900050A206946CDE90340B9
:1024E0005846FFF7D1FBE8010294CDE900050D2025
:1024F0006946CDE903401648FFF7C6FBCDF80090CA
:102500006946CDE90154CDE90347154F3846FFF739
:10251000BBFBCDF800A06946CDE90154CDE90346E7
:102520003846FFF7B1FB032120200090CDE901548C
:10253000CDE9034169464046FFF7A6FB35B0BDE84B
:10254000F08F000000100050E444025800100258C0
:1025500000000258000802580004025800180258EF
:10256000000C0258054808B5016841F002010160FD
:10257000006800F00200009008BD0000F44402581A
:10258000002809DB410900F01F028900012001F148
:10259000E0219040C1F80001704700000E4BF0B4FC
:1025A0001B680D46C3F30223C3F10706042E00D9AE
:1025B0000426191D072901D2002300E0DB1E012497
:1025C00004FA06F19C40491E2940641E99401440BB
:1025D0002143F0BC06F016B80CED00E0064900F00F
:1025E000070210B54FF6FF040868044B204040EA8C
:1025F00002201843086010BD0CED00E00000FA0551
:102600002DE9F04F02688346FE484FF0000A8DB076
:102610000C468242564602D10025012001E00125E8
:102620000020E8460027814607EB47017F1C08EBA6
:10263000C101F8B204F014F920B108204FF0010AEA
:10264000CBF85400FFB2022FEED3BAF1000F7CD1C9
:10265000DFF8B0E3DEF80000C00707D0DEF80010B6
:1026600046F0010621F00101CEF80010E6480068AE
:10267000C00706D0E44846F00206016821F00101D7
:10268000016005EB45030C93E048424608EBC303A9
:10269000DFF87CB30121DC469F6800EB8707D7F8A1
:1026A000008428F48078C7F80084DBF80070FF0706
:1026B00032D0DCF80070B9F1010F27F00107CCF837
:1026C00000705CD1069B00EB8303D3F8007447F0E5
:1026D0000207C3F80074079B3BB100EB8303D3F8F8
:1026E000007447F02007C3F80074099B4BB121EA3E
:1026F000030300EB8303D3F8047447F48027C3F883
:1027000004740A9BDBB321EA030700EB8703D3F8C9
:10271000047447F0806730E00C9F52F8377077B34D
:1027200000EB8707D7F800C42CF0010CC7F800C4F1
:102730005F683FB100EB8707D7F800C42CF0100C9E
:10274000C7F800C4D3F80CC000E057E1BCF1000F9B
:1027500009D021EA0C0700EB8707D7F804C42CF452
:10276000803CC7F804C41B694BB121EA030700EBA6
:102770008703D3F8047427F08077C3F8047409EB57
:102780004903D4F800C0CDF830C0914652F83370F8
:10279000BC4518D009EBC302D4F804C0D2F80480B9
:1027A000C44510D0D4F808C0D2F80880C4450AD077
:1027B000D4F80CC0D2F80C80C44504D0D4F810C0B2
:1027C0001269944551D10C9ABA4219D109EBC3024E
:1027D000D4F804C0D2F80480C44511D1D4F80CC098
:1027E000D2F80C80C4450BD1D4F810C012699445BE
:1027F00006D1DBF8003043F00103CBF8003034E0C1
:1028000000EB870709EBC302D7F8003423F001037C
:10281000C7F8003453683BB100EB8303D3F800746E
:1028200027F01007C3F80074936800EB8303D3F814
:10283000007427F48077C3F80074D3684BB121EAA1
:10284000030700EB8703D3F8047427F48037C3F839
:10285000047412694AB121EA020300EB8302D2F840
:10286000043423F08073C2F80434A3685A4600EBA2
:102870008303D3F8007427F4407747EA452747F4E9
:102880008077C3F80074DBF800C063695F1ECCF387
:10289000074C674508D95F4FD2F800C007EB0347E4
:1028A0002CF47F033B4313601268D207226800EBCD
:1028B0008202D2F800343FD023F003035B1CC2F83D
:1028C000003462684AB100EB8202D2F8003423F08F
:1028D000300343F01003C2F80034E268D3030AD592
:1028E00021EA020300EB8302D2F8043423F4E0234C
:1028F00043F480330AE05AB121EA020300EB830279
:10290000D2F8043423F0E06343F08073C2F8043457
:102910002269D30307D5914300EB8100D0F804145A
:1029200021F4E0214AE0EAB3914300EB8100D0F8C2
:10293000041421F0E0614EE001EB450723F00303AE
:102940003B43C2F8003462685AB100EB8202D2F80D
:10295000003423F0300343EA451343F01003C2F878
:102960000034E268D3030CD521EA020300EB8302B2
:10297000D2F8043423F4E02343EA854343F480335C
:102980000CE06AB121EA020300EB8302D2F80434BE
:1029900023F0E06343EA856343F08073C2F80434B4
:1029A000226900E01BE0D3030BD5914300EB8100CB
:1029B000D0F8041421F4E02141EA854141F440318A
:1029C0000BE062B1914300EB8100D0F8041421F0D8
:1029D000E06141EA856141F04071C0F80414F007FC
:1029E00005D0DEF8001041F00101CEF80010B0076C
:1029F00004D50548016841F0010101600DB0504661
:102A0000BDE8F08F0050005200A0005200B000520C
:102A100000B400520000FFFFF8B516460D4604460C
:102A2000FFF752FA0746206D022804D0142807D079
:102A3000242809D00DE0E068B0F1806F0DD108E0E6
:102A40002868022809D002E02868012805D0032858
:102A500003D0102161650120F8BD00223B462021F2
:102A60002046009604F054F80028F5D16065294608
:102A7000204603F063FF0028EED1A96B61B12968FD
:102A80000422A1B1012914D00229E5D1216D142914
:102A90000DD024212165F8BD01223B4602212046AC
:102AA000009604F035F8226802215162F8BD2265D3
:102AB000F8BD216D2429FAD01421EBE7F8B50025E3
:102AC0000446FFF701FA064624B100206065206D38
:102AD00010B170E001256EE0204600F0A5F841F24B
:102AE0008830A065258A6FF0FF012268D4F814C0F1
:102AF0000F02636B07EB0545E06801EB0C27D4F888
:102B00001CC0184393683D432D4F28433B4040EA87
:102B10000C00184390602068236AC26822F4E02207
:102B20001A43C2602368228EA06B40EA02401861FB
:102B30002268E06B5061D4E90003026801EB0323D3
:102B400022F4F85119430160A06D00222021334680
:102B50000090204603F0DCFF05002CD12068626A5B
:102B6000C168521E21F0FF011143C1602068A268B4
:102B7000016821F04001114301602068D4E90A1284
:102B8000D0F80831114323F0A0421143C0F80811D6
:102B90002068016841F001010160A069022804D1A8
:102BA0002068816841F002018160E068B0F1806FC7
:102BB00003D0022020652846F8BD0120FAE7000076
:102BC000F4F8E0F8F8B50D460446FFF77DF9034642
:102BD000206D1026042802D001206665F8BDA06D86
:102BE000002220210090204603F092FF0028F5D11A
:102BF00088212165296808290AD122686968C2F8F4
:102C0000301121684E6221680A6842F480120A601D
:102C10002168044C2A680B68234043F040531A4350
:102C20000A60F8BDF7FFFFCF2DE9F041B4B00446CC
:102C300014212EA8FDF712FCB8216846FDF70EFC02
:102C40002D492068884254D1002013904FF0007124
:102C50000446CDE90010684600F062FC08B1FDF7BB
:102C6000FFFF2648016841F400110160016801F48A
:102C700000113391016841F480410160006800F463
:102C8000804033901D480C30016841F02001016004
:102C9000016801F020013391016841F040010160B9
:102CA0000068022530AADFF8588000F04000339019
:102CB0004FF47070CDE92E05032640460A2782E8BE
:102CC000D0002EA9FEF7E0FF092130946802CDE97B
:102CD0003161CDE92E052EA94046FEF7D5FF4020F3
:102CE00030AACDE92E0507482EA982E8D000FEF7CC
:102CF000CBFF34B0BDE8F08100500052D4440258FC
:102D000000140258001802582DE9F84315460E46E3
:102D10000446FFF7D9F88046206800F15007816C1F
:102D2000D0F810213EB1236D042B06D0102161652F
:102D30000120BDE8F8830821F9E7036C5B1CA3645C
:102D4000A36C63642664036823F0405343F080530C
:102D50000360E068B0F1806F206804D0D0F80031E3
:102D600013F4E06F01D0816401E0C0F8102101226A
:102D7000062143462046009503F0CAFE0028D8D11C
:102D80003878216C0870206C401C2064A06C401EB8
:102D9000A064A06C0028EAD101224346022120460B
:102DA000009503F0B5FE0028C3D1226802215162CC
:102DB0002165BEE72DE9F84316460F460446FFF7A6
:102DC00083F88046206800F150053FB1216D042949
:102DD00006D0102161650120BDE8F8830821F9E7DC
:102DE000016C491CA164A16C61642764016821F035
:102DF000405101600122434604212046009603F021
:102E000087FE0028E8D1206C00782870206C401CD8
:102E10002064A06C401EA064A06C0028EAD10122AE
:102E2000434602212046009603F072FE0028D3D1CB
:102E30002268022151622165CEE70000134970B576
:102E40000A68D243520705D5096801F0070181429B
:102E500013D118E00A6822F0070202430A60FFF764
:102E600033F80A4D4FF47A760446083D07E000BF78
:102E7000FFF72AF8001BB04201D9012070BD286875
:102E8000C0438004F4D4002070BD00000C480258F8
:102E900010B501F03FF905490968054AC1F302116F
:102EA000515C01F01F01C84010BD000020440258D1
:102EB00080AF00084A4930B5494C0B1D0A680C34F4
:102EC00009681D68246802F0030305F00102C1F3DC
:102ED0000511C4F3CC04002914FB02F200EE102A01
:102EE000F8EE400A76D0414A9FED3E1ADFED3E1AD9
:102EF000B7EE000A23B1012B5AD0022B18D15CE0A7
:102F0000374C283C23689B0612D5394B246801EEC8
:102F1000901A1168C4F3C104F8EE612AE34001EE8F
:102F2000903AC1F30801F8EE611A81EEA22A07E097
:102F300002EE101A1168F8EE422A81EEA22A45E04C
:102F400001EE901A1168F8EE611A40EE811A71EEE6
:102F5000800A62EE200AC1F3462101EE101AB8EE93
:102F6000411A31EE001AC0EE811ABCEEE11A80ED72
:102F7000001A1168C1F3064101EE101AB8EE411AA9
:102F800031EE001AC0EE811ABCEEE11A80ED011A92
:102F90001168C1F3066101EE101AB8EE411A31EE64
:102FA000000A80EE801ABCEEC10A80ED020A30BD34
:102FB00001EE901ADFED0F2A03E001EE901ADFED2B
:102FC0000E2A1168F8EE611A82EEA12AC1F30801F7
:102FD000B6E7FFE7002101604160816030BD00007D
:102FE00028440258000000390024744C3044025830
:102FF0000090D0030024744A20BCBE4B494930B530
:10300000484C0B1D0A68143409681D68246802F0D6
:103010000303C5F30012C1F30531C4F3CC04002946
:1030200014FB02F200EE102AF8EE400A75D03F4A77
:103030009FED3D1AB7EE000A6BB1DFED3D1A012B93
:1030400001D0022B64D002EE101A1168F8EE422A69
:1030500081EEA22A21E0334C283C23689B0612D53E
:10306000344B246801EE901A1168C4F3C104F8EEE1
:10307000612AE34001EE903AC1F30801F8EE611ACB
:1030800081EEA22A0BE001EE901ADFED2B2A00BFA1
:10309000F8EE611A116882EEA12AC1F3080101EE6F
:1030A000901A1168F8EE611A40EE811A71EE800AEA
:1030B00062EE200AC1F3462101EE101AB8EE411A61
:1030C00031EE001AC0EE811ABCEEE11A80ED001A52
:1030D0001168C1F3064101EE101AB8EE411A31EE43
:1030E000001AC0EE811ABCEEE11A80ED011A1168D7
:1030F000C1F3066101EE101AB8EE411A31EE000A72
:1031000080EE801ABCEEC10A80ED020A30BD04E0F8
:1031100001EE901ADFED092ABAE700210160416053
:103120008160F3E72844025800000039384402580F
:103130000024744A0090D0030024744C20BCBE4B81
:10314000494930B5484C0B1D0A681C3409681D6894
:10315000246802F00303C5F30022C1F30551C4F350
:10316000CC04002914FB02F200EE102AF8EE400A0B
:1031700075D03F4A9FED3D1AB7EE000A6BB1DFED07
:103180003D1A012B01D0022B64D002EE101A1168F7
:10319000F8EE422A81EEA22A21E0334C283C236833
:1031A0009B0612D5344B246801EE901A1168C4F3C3
:1031B000C104F8EE612AE34001EE903AC1F3080140
:1031C000F8EE611A81EEA22A0BE001EE901ADFED13
:1031D0002B2A00BFF8EE611A116882EEA12AC1F312
:1031E000080101EE901A1168F8EE611A40EE811A9A
:1031F00071EE800A62EE200AC1F3462101EE101A38
:10320000B8EE411A31EE001AC0EE811ABCEEE11A96
:1032100080ED001A1168C1F3064101EE101AB8EEF4
:10322000411A31EE001AC0EE811ABCEEE11A80EDAF
:10323000011A1168C1F3066101EE101AB8EE411AC5
:1032400031EE000A80EE801ABCEEC10A80ED020A5F
:1032500030BD04E001EE901ADFED092ABAE7002143
:10326000016041608160F3E72844025800000039A2
:10327000404402580024744A0090D0030024744C47
:1032800020BCBE4B2DE9F04FA14A0546DFF87CA2D9
:1032900080F48070DFF8809289B013119F4C08434E
:1032A0009C48AAF104064FF0805C4FF0005828D0EB
:1032B000DFF858B285F480670F430BF1080B4FD04D
:1032C00085F400670F4360D085F480570F4372D0B8
:1032D00085F400570F434FF480394FF4003E69D016
:1032E00085F400270F4373D085F480370F4370D0E7
:1032F00085F480460E436DD085F400420A436AD0BF
:103300002AE0DAF8001001F00701052924D2DFE8ED
:1033100001F0F9AA6A259F0006A8FFF7CBFD0798E0
:1033200009B0BDE8F08F6846FFF768FE0098F7E740
:1033300003A8FFF705FF0398F2E72068C0F3C10078
:1033400022FA00F0ECE72268D2056ED561456CD117
:103350001846E5E74145E3D00020E1E74846DFE7CE
:10336000DBF8001001F46001B1F5800F3BD005DC03
:1033700000294AD0B1F5001FEED174E0B1F5C00FBD
:10338000ECD0B1F5000FE7D162E0DBF8001001F0FE
:10339000E061B1F1007F26D004DCB1B3B1F1807FF0
:1033A000DAD160E0B1F1407FD8D0B1F1806FD3D1F4
:1033B0004EE000E01BE0DAF8001001F4E041B1F566
:1033C000005F10D008DC01B3B1F5805FC4D14AE0E2
:1033D00035E058E065E088E0B1F5405FBED0B1F57A
:1033E000804FB9D134E020688000B5D5A0E7DAF885
:1033F000001001F4E021B1F5403F6DD006DC61B171
:1034000049457BD07145A7D158E07BE0B1F5802FCD
:1034100066D0B1F5A02F9FD10DE000F09DFE7FE7B3
:103420006846FFF7EBFD01987AE728E003A8FFF76D
:1034300087FE049874E7216889038AD48CE7DBF857
:10344000001011F440310ED0494510D0714583D1A0
:103450003168256801F040516D077FF574AF002990
:103460007FF471AF69E720680001E7D55BE720686A
:103470008000E3D503A8FFF763FE059850E72268B4
:103480009203DBD566E7306810F480303AD04845C7
:10349000D4D120680001D1D56846FFF7AFFD02986E
:1034A0003EE7DBF8001001F0E041B1F1405F13D0DE
:1034B00008DC71B1614521D04145BFD12068800051
:1034C000B4D449E7B1F1804F0AD0B1F1A04FB2D0E6
:1034D00042E7FFF7DDFC23E720684007AED52CE785
:1034E0002068C005AAD533E708E0DAF8001011F02B
:1034F0004051A0D0614505D041459FD120680001D1
:103500008ED429E72068800198D505E750440258F9
:103510000090D00340787D010080BB000044025839
:103520002DE9FE4F0546DFF800A450F8081B0024E3
:10353000FD4FC943019005F1280026460AF1240AEF
:10354000009008011DD4686E50B1B0F5801F0CD0FA
:10355000B0F5001F0ED0B0F5401F1ED001240FE0C3
:10356000386840F40030386017E00198022103F019
:1035700093FB03E00098022103F01EFC04000CD032
:1035800026462888C043C00523D4A86D05281ED22E
:10359000DFE800F00C11161B1B006A6EDAF8001051
:1035A00021F440111143CAF80010EAE7386840F4EA
:1035B0000030386009E00198002103F06DFB03E062
:1035C0000098002103F0F8FB0446C4B100E0012498
:1035D00026462888DFF85083C04308F12C084005B0
:1035E0002FD4D5F8A400B0F5C00F28D010DCB8B1A6
:1035F000B0F5001F19D0B0F5800F0FD11AE0AA6DF9
:10360000DAF8001021F007011143CAF80010E0E7D2
:10361000B0F5000F13D0B0F5200F10D001240FE04B
:10362000386840F40030386009E00198002103F068
:1036300033FB03E00098002103F0BEFB044694B185
:1036400026462888C043000530D4D5F8A800B0F13C
:10365000407F29D011DCC0B1B0F1807F1AD0B0F129
:10366000007F10D11BE0D5F8A420D8F8001021F479
:1036700060011143C8F80010E3E7B0F1806F13D088
:10368000B0F1A06F10D001240FE0386840F4003092
:10369000386009E00198002103F0FEFA03E0009889
:1036A000002103F089FB044694B126462868DFF820
:1036B00078B2C0430BF1200B80011FD4E86CD8B165
:1036C00010280FD0202812D0302815D0012414E063
:1036D000D5F8A820D8F8001021F0E0611143C8F80F
:1036E0000010E3E7386840F40030386004E00198E7
:1036F000022103F0D1FA044674B126462888C0435B
:10370000C0042BD4E86DB0F5005F20D00DDCA0B173
:10371000B0F5805F0FD115E0EA6CDBF8001021F006
:1037200030011143CBF80010E8E7B0F5405F13D04B
:10373000B0F5804F10D001240FE0386840F400301D
:10374000386009E00198002103F0A6FA03E0009830
:10375000002103F031FB04468CB126462888C04383
:10376000800429D4286EB0F5403F23D010DC08B384
:10377000B0F5803F14D0B0F5003F0FD115E0EA6DF1
:10378000DAF8001021F4E0411143CAF80010E5E72F
:10379000B0F5802F0ED0B0F5A02F0BD001240AE099
:1037A0000198012103F078FA03E00098012103F069
:1037B00003FB044694B126462888C04340042AD41B
:1037C000D5F8AC00B0F1405F23D010DC08B3B0F105
:1037D000805F14D0B0F1005F0FD115E02A6EDAF8E7
:1037E000001021F4E0211143CAF80010E4E7B0F121
:1037F000804F0ED0B0F1A04F0BD001240AE0019809
:10380000012103F049FA03E00098012103F0D4FA02
:10381000044674B126462888C04300041FD4E86ECD
:10382000D8B1B0F1805F0ED0B0F1005F10D00124AC
:1038300014E0D5F8AC20D8F8001021F0E041114395
:10384000C8F80010E7E7386840F40030386004E05A
:103850000198012103F020FA044674B12646286835
:10386000C043C0011ED4A86CD0B101280ED00228DC
:1038700011D0032814D0012413E0EA6EDAF8001006
:1038800021F040511143CAF80010E8E7386840F4CD
:103890000030386004E00198022103F0FDF904468D
:1038A0006CB126462868C043400255D41F480168C1
:1038B00041F480710160FEF707FB81460EE0AA6CBF
:1038C000DBF8001021F003011143CBF80010E9E709
:1038D000FEF7FAFAA0EB090064283BD81348006809
:1038E000C005F5D5BCBBDFF84090B5F8B01009F1C4
:1038F0004409D9F8000001F4407100F44070884296
:1039000011D0D9F80010D9F8002021F4407142F408
:103910008032C9F80020D9F8002022F48032C9F89A
:103920000020C9F8001003E02C4402580048025857
:10393000D5F8B000B0F5807F19D1FEF7C5FA029036
:1039400011E000BFFEF7C0FA0299411A41F2883037
:10395000814208D9032426462878DFF81494C0430E
:10396000C00721D03CE0D9F800008007EAD5D5F89F
:10397000B010C1F301200328FE480DD0016821F4E6
:103980007C510160B5F8B020D9F80010C2F30B02E9
:103990001143C9F80010DFE7F74A036802EA111281
:1039A00023F47C511143ECE7A86F182816D005DCEE
:1039B000A0B1082808D0102804D10AE020280DD092
:1039C00028280BD001240AE00198012103F064F9B2
:1039D00003E00098012103F0EFF9044664B12646A4
:1039E0002878C04380071ED4686F062819D2DFE804
:1039F00000F0160C11161616AA6FD9F8001021F057
:103A000038011143C9F80010EAE70198012103F0D9
:103A100043F903E00098012103F0CEF904467CB19C
:103A200000E0012426462878C04340071FD4D5F87B
:103A30009000062819D2DFE800F0160C11161616B1
:103A40006A6FD9F8001021F007011143C9F800107E
:103A5000E9E70198012103F01FF903E00098012133
:103A600003F0AAF90446A4B100E001242646287810
:103A7000C04380062BD4D5F88C00B0F1405F24D031
:103A800011DC10B3B0F1805F15D0B0F1005F10D140
:103A900016E0D5F89020D8F8001021F00701114366
:103AA000C8F80010E3E7B0F1804F0ED0B0F1A04F9E
:103AB0000BD001240AE00198002103F0EDF803E0A7
:103AC0000098022103F078F9044694B1264628783C
:103AD000C04340062BD4D5F89800B0F5406F24D0F1
:103AE00011DC10B3B0F5806F15D0B0F5006F10D1B8
:103AF00016E0D5F88C20D9F8001021F0E0411143F0
:103B0000C9F80010E3E7B0F5805F0ED0B0F5A05F14
:103B10000BD001240AE00198002103F0BDF803E076
:103B20000098022103F048F9044694B1264628780B
:103B3000C04300062BD4D5F89C00B0F5C04F24D06C
:103B400011DC10B3B0F5005F15D0B0F5804F10D187
:103B500016E0D5F89820D8F8001021F4E051114370
:103B6000C8F80010E3E7B0F5004F0ED0B0F5204FD5
:103B70000BD001240AE00198002103F08DF803E046
:103B80000098022103F018F9044654B1264628781B
:103B9000C04300071ED4D5F88000B0F5805F0AD07E
:103BA0000FE0D5F89C20D8F8001021F460411143B3
:103BB000C8F80010EBE70098022103F0FDF800B10F
:103BC0000126D5F88020D9F8001021F44051114386
:103BD000C9F800102878C043C00613D4D5F8940063
:103BE000B0F5807F05D10098022103F0E5F800B11F
:103BF0000126D5F89420D8F8001021F44071114323
:103C0000C8F800102868C043000316D4D5F8A000F7
:103C100038B1B0F5803F09D0B0F5003F0BD001249A
:103C20000AE00198002103F037F803E00098022130
:103C300003F0C2F804468CB126462868C04340030E
:103C400022D4D5F88400B0F5801F11D0B0F5001F44
:103C500013D0B0F5401F15D0012414E0D5F8A020F2
:103C6000D8F8001021F440311143C8F80010E4E7FF
:103C7000386840F40030386004E00098012103F017
:103C80009BF804465CB126462868C043C0031CD498
:103C9000286D70B1B0F5803F10D0012414E0D5F844
:103CA0008420D9F8001021F440111143C9F8001004
:103CB000EAE7386840F40030386004E001980221F7
:103CC00002F0EAFF0446DCB126462868C0438000C3
:103CD00005D40098022103F06FF800B1012628688E
:103CE000C04380031BD4E86FB8B1B0F5807F10D01B
:103CF000B0F5007F11D0B0F5407F0ED001240DE06B
:103D00002A6DDBF8001021F480311143CBF800104C
:103D1000DBE7386840F4003038607CB3264628681A
:103D2000C043C00207D42A6FDAF8001021F0004126
:103D30001143CAF800102868C043800207D4AA6E55
:103D4000DAF8001021F080711143CAF800102868D9
:103D5000C043400009D40748016821F400410160D4
:103D60000168D5F8B420114301602868C04306E01B
:103D70005444025810440258CFFFFF001DE007D4FE
:103D80006A6DDBF8001021F040511143CBF80010B0
:103D90002868C043000208D4D5F88820D9F800105C
:103DA00021F440011143C9F8001028790024C043D0
:103DB00000F00100204309D00EE0EA6FD9F80010AE
:103DC00021F440711143C9F80010A8E701980021BF
:103DD00002F062FF00B106462879C04300F00200FD
:103DE000204305D10198012102F056FF00B106469B
:103DF0002879C04300F00400204305D10198022136
:103E000002F04AFF00B106462879C04300F00800DE
:103E1000204305D10098002102F0CEFF00B10646F4
:103E20002879C04300F01000204305D100980121FB
:103E300002F0C2FF00B106462879C04300F020001E
:103E4000044304D10098022102F0B6FF00B916B174
:103E50000120BDE8FE8F0020FBE700002DE9F05FA8
:103E600004000F467ED0DFF83882D8F8000000F05A
:103E70000F00B8420CD2D8F8001021F00F013943DE
:103E8000C8F80010D8F8000000F00F00B84269D15F
:103E90002078844D40070AD52069296801F0700117
:103EA000884204D9296821F07001014329602078F3
:103EB0007C4E361D00070AD56069316801F070013B
:103EC000884204D9316821F07001014331602078C3
:103ED000C0060AD5A069316801F4E061884204D9BE
:103EE000316821F4E061014331602078DFF8B4B13A
:103EF00080060BF1080B0CD5E1695846DBF8002071
:103F000002F07002914204D9026822F070020A4362
:103F10000260207880070AD5E068296801F00F0167
:103F2000884204D9296821F00F01014329602078D3
:103F3000C0073ED05B49A2682868183920F4706039
:103F4000104328606068022818D0032819D0096837
:103F5000012819D0490700294ADADFF848A1AAF157
:103F6000080A00E044E0DAF8002022F007020243E9
:103F7000CAF80020FDF7A8FF814612E0096889030E
:103F8000E9E709688901E6E7C905E4E7FDF79CFF71
:103F9000A0EB090141F28830814202D90320BDE83B
:103FA000F09F6168DAF8000000F03800B0EBC10F54
:103FB000ECD1207880070AD5E068296801F00F016C
:103FC000884204D2296821F00F0101432960D8F802
:103FD0000010404601F00F01B9420BD9016821F0F1
:103FE0000F0139430160006800F00F00B84201D0B2
:103FF0000120D4E7207840070AD52069296801F01C
:104000007001884204D2296821F0700101432960BF
:10401000207800070AD56069316801F07001884294
:1040200004D2316821F07001014331602078C0066C
:104030000AD5A069316801F4E061884204D2316890
:1040400021F4E06101433160207880060CD5E169FC
:104050005846DBF8002002F07002914204D2026858
:1040600022F070020A43026000F09AF80E492A68B2
:104070002B68C2F3032203F00F038A5CC95C02F0D1
:104080001F0201F01F01D040084A20FA01F111601F
:104090000749086007480068BDE8F05FFEF774B89C
:1040A000002000521844025880AF0008600000242D
:1040B0005C0000245400002470B5144C3F220260C0
:1040C000124A24680832131D114D04F0070444609D
:1040D00016681C1D06F470668660166806F00F06EA
:1040E000C660126802F0700202611A6802F0700283
:1040F00042611A6802F4E0628261226802F0700292
:10410000C261286800F00F00086070BD10440258BA
:104110000020005230B500F043F80B4A0B490C4B1D
:1041200015681468C5F3032204F00F048A5C095D66
:1041300002F01F0201F01F01D040064A20FA01F1EF
:1041400019601060084630BD1844025880AF00085E
:10415000600000245C00002400B5FFF7DBFF054988
:104160000968054AC1F30211515C01F01F01C84002
:1041700000BD00001C44025880AF000800B5FFF7E6
:10418000C9FF05490968054AC1F30221515C01F0E4
:104190001F01C84000BD00001C44025880AF000849
:1041A000454970B545480968434B103B11F038024A
:1041B00008D00111082A03D0102A0BD0182A0BD0DE
:1041C000084670BD19688906FBD51968C1F3C1019D
:1041D000C84070BD3A4870BD3749374D18310C1D85
:1041E00024350A68096826682D6802F0030406F081
:1041F0000102C1F30511C5F3CC0515FB02F200EE77
:10420000102AB8EE400AE9B32F4ADFED2E0AB7EEC6
:10421000001A6CB1DFED2D1A012C01D0022C43D015
:1042200002EE101A1068F8EE422A81EEA22A1EE071
:104230001C68A40611D51B6801EE901A1168C3F31F
:10424000C103F8EE612AD84001EE900AC1F30800DC
:10425000F8EE611A81EEA22A0BE001EE901ADFED72
:104260001C2A00BFF8EE611A106882EEA12AC0F382
:10427000080001EE900AF8EE611A40EE201A31EEC5
:10428000810A00E015E022EE000A1068C0F3462023
:10429000401C00EE900AF8EE600A80EE201ABCEE98
:1042A000C10A10EE100A70BD01EE901ADFED092A66
:1042B000D8E7002070BD0000104402580090D003E1
:1042C00040787D0100000039304402580024744ACF
:1042D0000024744C20BCBE4B2DE9F05F04007DD05F
:1042E000FF4F2078FE4D1837DFF8F483103DC007EC
:1042F00048D0D8F80000396800F03800102815D0F0
:10430000182803D101F0030002280FD06068B0F52F
:10431000803F12D010B1B0F5A02F18D0286820F43B
:1043200080302860286820F4802009E02868800315
:1043300028D560680028D2D024E0286840F4803076
:104340002860606888B1FDF7BFFD064609E028686F
:1043500040F480202860F0E7FDF7B6FD801B64285C
:104360007ED828688003F7D50CE0FDF7ADFD064642
:1043700005E000BFFDF7A8FD801B6428F0D8286881
:104380008003F7D42078800756D5D8F80000DFF8EE
:104390005093396810F03800A9F10C090ED0182894
:1043A00001D188070AD0E068A8B3296821F0190173
:1043B00001432960FDF788FD064628E0286840078C
:1043C00002D5E06800288AD0E168286820F019004A
:1043D00008432860FDF778FD064606E0D2E000BFFE
:1043E000FDF772FD801B0228BAD828684007F7D570
:1043F000217CD9F8002022F0FE4242EA0161C9F88E
:10440000001019E0FDF760FD801B0228A8D828687D
:104410004007F7D5ECE7FFE7286820F001002860A7
:10442000FDF752FD064604E0FDF74EFD801B022815
:1044300096D828684007F7D42078C00646D5D8F823
:104440000000DFF89C92396800F03800A9F10409F7
:10445000082812D0182805D101F00300012800E037
:10446000CEE00AD0E0690028286820D040F0800023
:104470002860FDF729FD064615E02868C00502D52D
:10448000E06980287ED194F82010D9F8002022F02D
:104490007C5242EA0161C9F8001017E0FDF714FDF3
:1044A000801B0228A0D82868C005F7D5EBE720F0CC
:1044B00080002860FDF708FD064604E0FDF704FDD6
:1044C000801B022890D82868C005F7D42078000700
:1044D00029D583486169643000298146016811D07B
:1044E00041F001010160FDF7EFFC064605E000BF69
:1044F000FDF7EAFC801B022888D8D9F80000800765
:10450000F6D510E021F001010160FDF7DDFC064663
:1045100005E000BFFDF7D8FC801B022870D8D9F851
:1045200000008007F6D42078800623D5A0690028F3
:10453000286810D040F480502860FDF7C5FC06467E
:1045400005E000BFFDF7C0FC801B022858D8286892
:104550008004F7D50EE020F480502860FDF7B4FC0D
:10456000064604E0FDF7B0FC801B022848D8286806
:104570008004F7D42078400751D5DFF86891D9F846
:10458000001000E015E141F48071C9F80010FDF75A
:104590009BFC064605E000BFFDF796FC801B6428E7
:1045A0002ED8D9F80000C005F6D54D4EA06860366B
:1045B00001280AD008B1052813D0306820F0010086
:1045C0003060306820F0040002E0306840F0010004
:1045D0003060A06841F2883A98B1FDF775FC8146D9
:1045E0000AE0306840F004003060EEE7FDF76CFC54
:1045F000A0EB0901514503D830688007F6D50EE0DD
:1046000072E0FDF761FC814606E000BFFDF75CFC4F
:10461000A0EB0901514567D830688007F6D4606A7D
:1046200000287CD0DFF8B8A0D8F800100AF1200AE2
:104630004FF6F87B0AF10408C1F3C2010329AAF17D
:1046400004096DD00228286820F08070286003D00B
:10465000FDF73AFC044681E0FDF736FC064604E02F
:10466000FDF732FC801B022875D828688001F7D43A
:10467000E26A40F2F331386854F8283F884340EA50
:10468000021018433860217B4FF4FE0C22894FF052
:10469000FE47208A4902267D521E401EA1F5007168
:1046A00089B2C2F308021143761E0CEA00400143AE
:1046B000484607EA06621143CAF80010D9F800100C
:1046C00021F00101C9F80010D8F80030266A23EA69
:1046D0000B0343EAC601C8F80010D9F8001004E043
:1046E000104402580048025835E0A26921F00C013C
:1046F0001143C9F800100168E26921F00201114379
:104700000160016841F480310160016841F40031C9
:104710000160016841F480210160016801E06CE002
:1047200020E041F001010160286840F080702860BD
:10473000FDF7CAFB044604E0FDF7C6FB001B022898
:1047400009D828688001F7D557E000BFFDF7BCFB0A
:10475000001B022802D90320BDE8F09F28688001D1
:10476000F4D44AE039680128DAF8000021D0A26ABE
:1047700001F0030393421CD1E26AC1F305118A429E
:1047800017D1216BC0F30802491E8A4211D1616B17
:10479000C0F34622491E91420BD1A16BC0F30642E1
:1047A000491E914205D1E16BC0F30660491E81426A
:1047B00001D00120D0E7A16C4646D8F80000C0F334
:1047C000CC00814219D0D9F800004D4620F00100FC
:1047D000C9F80000FDF778FB4FEA0007FDF774FB0E
:1047E000B842FBD0A26C306820EA0B0040EAC2005D
:1047F0003060286840F0010028600020ACE700002D
:104800002DE9F047040059D0607A4FF0000920B933
:10481000204684F8089000F063F82F4B02252F49BA
:10482000657247F274222068066826F00406066066
:10483000D4E9000607681F4047F080431E43066026
:1048400020680161206802612068016821F08041D0
:104850000160FDF739FB06464FF001080CE000BF90
:10486000FDF732FB801B022806D920680068400053
:1048700002D584F8098020E0206800684000EFD469
:1048800020680427016841F0040101602068406845
:10489000C043400601D4677210E0FDF715FB0646E1
:1048A0000FE000BFFDF710FB801B022809D920682C
:1048B0004068C043400704D46772E5600120BDE84A
:1048C000F08720684068C0434007EBD584F8098032
:1048D000C4F80C900020F2E7DFFFFFBFBC0A5917B5
:1048E00010B5B0B00446B8216846FBF7B7FD0D49D6
:1048F0002068884214D100201F904FF40031CDE988
:1049000000106846FEF70CFE08B1FCF7A9F906484E
:10491000016841F040010160006800F040002E9005
:1049200030B010BD00180248DC4402582DE9F05F99
:10493000040033D094F83800A049DFF884A201289D
:1049400009D12068884201D0504527D160680128EC
:1049500024D1606C10BB9A4F8B46DFF860822068D0
:10496000203708F12008584501D0404502D193482E
:10497000001F05E0504501D0B8420FD19048001FFC
:10498000814694F8910028B9002084F890002046D0
:1049900000F036F9204602F09FFA10B10120BDE880
:1049A000F09FE168022084F8910019B1012903D039
:1049B000022903D0002002E0102000E02020A1689E
:1049C0004FF4006629B1012905D0022906D0052936
:1049D00044D0002503E04FF4806500E03546C9F877
:1049E0000000206AC8B321680020594501D0414524
:1049F00004D100214FF48070FEF744FC2268524538
:104A000004D100214FF48060FEF73CFC2168B942DC
:104A100003D100213046FEF735FCA169B1F5002F26
:104A20001FD0A16AB1F1806F2FD00121226A00EB63
:104A300080004A4341001002B1FBF0F00A22B0FBB3
:104A4000F2F3B0FBF2F1616202FB1300082801D916
:104A5000491C6162606C042819D01AE040F0030020
:104A6000BCE7616C04290BD008290BD0D4F8541092
:104A700000EB8000226A4A434000B0FBF2F0DDE721
:104A80004021F5E74FF48071F2E70221CEE74808B4
:104A9000606260684FF40071F0B3022871D0206D3D
:104AA000012800D000212068464E4EF20F07DFF8A3
:104AB00018C1036832154FF2200833400360636C5D
:104AC00060681843D4E9123633431843E36A084355
:104AD0002843D4E905151843A38C0843A16A284349
:104AE000256840EA0350084321692B6808431843AE
:104AF000286020684368BB4343602068E669256BF3
:104B000043683343666B35432B43436020688368B7
:104B100003EA0C03836000E033E0D4E91850D4E9E1
:104B20001673666D18432368761E354328439D68C7
:104B300002EB072630432843986054F8680BC3689B
:104B400003EA0803C36094E8C100A58954F8683DEE
:104B500002EB072242EA05423043DD681043284356
:104B6000D8602068584501D050451DD1D9F844007F
:104B700020F00101C9F8441094F83800012804D04D
:104B800012E0206D01288DD08DE7D4E90F106FF071
:104B90000F0202EB01110843C9F84400D9F84400A0
:104BA00040F00101C9F844100020C4F8940001212C
:104BB00084F8911084F89000F1E600000458014058
:104BC0000454005810C005F00080F8FF10B5052906
:104BD000044612D2DFE801F0030303070700204672
:104BE00002F09AF902E0204602F0EAF9002805D125
:104BF0002046BDE81040FFF799BE012010BD00001F
:104C00002DE9F041B4B08046B8216846FBF726FC98
:104C10003249D8F8000088425CD1801541F24747FC
:104C2000002119220D4602248DE80700B423CDE9A6
:104C3000033406A90594012016902026684681E8D1
:104C4000F000FEF76DFC08B1FCF70AF8244908688B
:104C500040B9244A136843F480031360126802F4D5
:104C6000800233922EAB401C086006261E48342278
:104C700083E83400CDE931562EA9FDF705F82EAAB8
:104C800004202EA982E831001848CDE93156FCF7FE
:104C9000FBFF174C40221748572104F1040ED7019F
:104CA00020600315C6148EE82600900204F110025D
:104CB000C4E908054FF4807C204682E8C810FCF760
:104CC00079FD08B1FBF7CCFFC8F88440C4F8388000
:104CD000C8F8804034B0BDE8F081000004580140BD
:104CE00008000024F0440258001002580004025842
:104CF000B43300241000024070B504000D4603D008
:104D000094F82C0010B107E0012070BD002084F859
:104D10002D00204600F018F8022084F82C002068AE
:104D2000211DFBF7D1FFD4E900022946FCF71EF84C
:104D300004480121026842F00042026084F82C100D
:104D4000002070BD00400052FCF724BF10B504469F
:104D500090F82C00022804D094F82C00012801D0EF
:104D6000012010BD022084F82C002068FBF7E1FF31
:104D7000012084F82C00002010BD000070B504460E
:104D800090F82C000D46022804D0012803D00528F5
:104D900001D0012070BD022084F82C002068FBF7B0
:104DA000D1FF2868022805D05FF0010084F82C00AC
:104DB000002070BD0520F9E72DE9FC5F0446806BFB
:104DC0000E46032184F83010002703285CD0B6F586
:104DD000004F59D0B6F5804F4FF000054FF40068F2
:104DE0004FF0806904D006B3606B40F000603FE094
:104DF000009500210195206802F06CFC80011CD414
:104E00006946204602F00AFD70BB019840032DD58B
:104E1000B4F844102068090402F00FF920BB2068A0
:104E200002211DE0606B284322E0009500210195DE
:104E3000206802F04FFC800101D54546F2E7694643
:104E4000204602F0EBFC78B90198C0030ED5B4F807
:104E500044102068090402F0F0F828B92068002105
:104E600002F035F90028DDD00546DBE74D46D9E7ED
:104E70006063606B4FF4007BDFF8B8A040B121683D
:104E80000127C1F838A042E0606B40F08050EFE7A6
:104E900000214FF48030FEF7F5F9010032D0264DA5
:104EA0003346D4E904C0B1FBF5F8D4E9019280455A
:104EB00010D9A66D5E450DD0B6F5807F11D04FEAB2
:104EC0006506E0B14FEA4008B1FBF8F8B04501D9FA
:104ED000B1FBF5F04946CDE900C0206802F0FEFBC9
:104EE00015E0164E30B14FEA4008B1FBF8F8A8457E
:104EF00002D8EFE7A942EDD9B1FBF6F0EAE7B142FB
:104F0000E6D8E7E7606B012740F000606063206847
:104F1000594602F0C3F830B122680127C2F838A020
:104F2000616B01436163012084F830003846BDE8BD
:104F3000FC9F0000FF0FE01F80F0FA0200E1F50582
:104F4000F0B5C26D920F0A70C26DC2F383624A70EF
:104F5000C26DC2F301628A70C26D120CCA70B0F8E1
:104F60005C20120A0A7190F85C204A71026E120DE0
:104F7000CA80026EC2F303420A72B0F86020C2F324
:104F8000C0324A72B0F86020C2F380328A72B0F840
:104F90006020C2F34032CA72B0F860200026C2F32B
:104FA00000320A734E730122836B4FF4007463B1B5
:104FB000012B3AD0036850499963416B41F080510D
:104FC000416380F830200120F0BDB0F86030456EBC
:104FD0009B051B0D43EA95730B61436EC3F3C263DC
:104FE0000B75436EC3F302634B75436EC3F34253B9
:104FF0008B75436EC3F38243CB75436EC3F3C233E9
:105000000B760D696D1C85640B7E03F007039B1CFA
:105010009D4085640B7A446503F00F0302FA03F3A5
:105020005F0A7D43C0E913350EE090F86050436E8F
:10503000AD06AD0A45EA13430B610B695B1C9B028D
:105040008364C0E913434465B0F86430C3F380332C
:105050004B76B0F86430C3F3C6138B7690F86430A7
:1050600003F07F03CB76836EDB0F0B77836EC3F386
:1050700041734B77836EC3F382638B77836EC3F385
:105080008353CB77836EC3F3405381F8203081F88C
:105090002160836EC3F3004381F82230B0F868309A
:1050A000C3F3C03381F82330B0F86830C3F38033E2
:1050B00081F82430B0F86830C3F3403381F82530EC
:1050C000B0F86830C3F3003381F82630B0F86830A8
:1050D000C3F3812381F82730B0F86830C3F301238C
:1050E00081F8283090F86800C0F3460081F8290064
:1050F00081F82A200020F0BDFF0FE01F826B0A60BC
:10510000C26B4A60026C8A60426CCA60826C0A613F
:10511000C26C4A61026D8A61406DC86100207047AF
:1051200070B5B0F84410002504460068090402F088
:10513000BCF818B1616B0143616304E02068002191
:1051400002F0C8FA0546C5F3432070BD2DE9F041D1
:10515000054690F8300090B00C460026032810D089
:105160006946284602F0A2FC2A4F4FF0010860B1C0
:105170002A68012697636A6B02436A6385F8308068
:105180003AE0012010B0BDE8F08100994FF47F4073
:10519000C1F3811121700099C1F340116170009930
:1051A0000A4600EA112141EA12616180019909BAB7
:1051B0006160029921720299090A61720299C1F330
:1051C0000351A172DDE9022100EA1240C9B208438D
:1051D000A0810398C0F38520A0730398C0F3012039
:1051E000E0730398C0F303102074039800F00F00DD
:1051F00060740498000EA07428684FF4007101F0E8
:105200004DFF28B12A6801269763686385F83080CE
:105210003046B7E7FF0FE01FF0B5040085B020D09F
:1052200094F83000002518B92046257600F098F84B
:10523000042084F83000204600F03CF888B9694624
:105240002046FFF783FF60B99DF81010A26B9DF810
:105250001100012A08D0A5652046E168FFF7ACFDE2
:1052600058B1012005B0F0BD014302D04FF40070E9
:1052700001E04FF48070A065EEE7FCF725FE012702
:10528000064604E0FCF720FE801B401C0AD02046A6
:10529000FFF746FF0428F5D16563E56284F83070B6
:1052A0000020DFE74FF00040606384F83070032097
:1052B000D8E700002DE9FC414FF0000804464FF408
:1052C00080304146FDF7DEFF05004FF0010723D097
:1052D0002048434642464146B5FBF0F6CDE90086FC
:1052E000206802F0FBF9206802F008FA1EB1700095
:1052F000B5FBF0F52DB11848B0FBF5F0401CFCF7FC
:1053000037FC204602F078FB60B100BF84F83070B3
:10531000616B0143616319E04FF0006084F8307005
:10532000606313E0204602F0EBFA0028EED120681B
:105330004FF4007101F0B2FE002808D0226807493E
:105340009163616B0143616384F830700120BDE8B3
:10535000FC81000000350C0010210100FF0FE01F50
:10536000F0B5B5B0044614212EA8FBF777F8B821A4
:105370006846FBF773F835492068884264D10020FD
:1053800014904FF480310446CDE900106846FEF7D2
:10539000C7F808B1FBF764FC2D48016841F40071BF
:1053A0000160006800F4007033902948001D016816
:1053B00041F001010160016801F0010133910168D0
:1053C00041F002010160016801F0020133910168BE
:1053D00041F008010160016801F0080133910168A2
:1053E00041F0400101600068022530AA00F0400051
:1053F00033900120CDE92E0503261648092782E8BF
:10540000D0002EA9FCF740FCB00330AACDE92E0550
:1054100011482EA982E8D000FCF736FC0B2130940D
:105420004020CDE93161CDE92E050C482EA9FCF7CD
:105430002BFC0A213094F002CDE93161CDE92E0533
:1054400007482EA9FCF720FC35B0F0BD0024024827
:10545000DC4402580000025800040258000C0258B4
:10546000001802582DE9F04F87B0994617460D46AF
:105470000446FCF729FD06903DB194F83000012860
:1054800007D0606B40F000500DE0606B40F00060B2
:1054900009E0226D002007EB09016063914204D905
:1054A000606B40F000706063A8E0032184F8301066
:1054B0002168C862A16B012900D07F024FF0020A67
:1054C000CDE903A090264FF0FF324FEA4923059023
:1054D0008DE84C0080462068694601F091FF206805
:1054E000B9F1010F4FF00106C16841F04001C16000
:1054F00006D9C4F82CA03946206801F041FE04E02A
:10550000E6623946206801F055FEDFF814A150B17B
:105510002368C3F838A0616B0143616384F830608D
:10552000C4F82C806AE0DDF804B01FE0406B000492
:1055300014D5BBF1200F11D30027206802F0E4F846
:10554000020A2870010C6A70030EA9707F1CEB70B0
:10555000082F05F10405F0D3ABF1200BFCF7B4FCE8
:105560000699411A1098814221D200B32068416BFC
:1055700011F4957FDAD0C16821F04001C160206844
:10558000416BC90522D5B9F1010F1FD9A16B0329C0
:105590001CD001F0D7FEC8B12368C3F838A0626BF5
:1055A0000243626384F83060C4F82C8026E02268ED
:1055B000C2F838A0606B40F00040606384F830604F
:1055C000C4F82C80032007B0BDE8F08F2068416B41
:1055D000090706D5C0F838A0616B404641F00801C4
:1055E00008E0416B89070BD5C0F838A0616B4046D5
:1055F00041F00201616384F83060E0620120E2E77B
:10560000416B890606D5C0F838A0616B404641F071
:105610002001EFE70349816384F830600020D2E77E
:10562000FF0FE01F3A0F00182DE9F04F89B09A469E
:1056300016460D460446FCF747FC06903DB194F82B
:105640003000012807D0606B40F000500DE0606B27
:1056500040F0006009E0226D002006EB0A01606363
:10566000914204D9606B40F000706063B2E00321A6
:1056700084F830102168C862A16B012900D076023D
:105680004FF0FF314FEA4A22059090230490CDE974
:105690000230CDE9001280462068694601F0B0FE74
:1056A0002068C168BAF1010F41F04002C26006D91A
:1056B0002020E0622068314601F06EFE05E01020F7
:1056C000E0622068314601F081FEDFF830B106006B
:1056D0004FF001090AD02368C3F838B0606B30433B
:1056E000606384F83090C4F82C8073E001980890CF
:1056F00027E0406B40041CD50898202819D30027C8
:1057000028780790697840EA01200790A97840EA54
:1057100001400790E9782D1D40EA0160079020685C
:1057200007A902F009F87F1C082FE9D30898203850
:105730000890FCF7C9FB0699411A1298814221D2C0
:1057400000B32068416B11F48D7FD2D0C16821F085
:105750004001C1602068416BC90521D5BAF1010F34
:105760001ED9A16B03291BD001F0ECFDC0B1256847
:10577000C5F838B0616B0143616384F83090C4F8B8
:105780002C8027E02368C3F838B0626B3243626331
:1057900084F83090C4F82C80032009B0BDE8F08F65
:1057A0002068416B090707D54946C0F838B0626BDD
:1057B000404642F0080209E0416B89070CD5494692
:1057C000C0F838B0626B404642F00202626384F86F
:1057D0003010E0620120E0E7416BC90607D5494679
:1057E000C0F838B0626B404642F01002EEE7044A5F
:1057F000826384F830900020CFE70000FF0FE01FA5
:105800003A0F00187047704770470000F0B590F8E5
:105810003C20012A41D0224E012480F83C40022243
:1058200080F83D2002681F4D5368B242D2F808C08C
:1058300001D0AA4203D14F6823F470033B430F68A1
:1058400023F070031F4357600268B24219D0B2F1CF
:10585000804F16D0144B9A4213D0144B9A4210D05A
:10586000134B9A420DD0AA420BD0124B9A4208D049
:10587000114B9A4205D0114B9A4202D0104B9A42DA
:1058800004D189682CF0800319439160002180F8CD
:105890003D4080F83C100846F0BD0220F0BD0000FD
:1058A00000000140000401400004004000080040E6
:1058B000000C0040001800400040014000E00040A3
:1058C00000E4004010B5040003D094F83D0010B18E
:1058D00007E0012010BD002084F83C00204600F0C5
:1058E00023F8022084F83D002068211D02F080FA90
:1058F000012084F8480084F83E0084F83F0084F8D2
:10590000400084F8410084F8420084F8430084F8A1
:10591000440084F8450084F8460084F8470084F881
:105920003D00002010BD000008B50068064988420F
:1059300008D10648016841F002010160006800F0EA
:105940000200009008BD000000040040E844025836
:1059500090F83D10012901D0012070471A4A022118
:1059600080F83D100168CB6843F00103CB6000680C
:1059700090421AD0B0F1804F17D01449884214D009
:105980001349884211D0134988420ED012498842E7
:105990000BD01249884208D01149884205D01149DC
:1059A000884202D01049884207D181680F4A1140CD
:1059B000062906D0B1F5803F03D0016841F001010E
:1059C000016000207047000000000140000400401A
:1059D00000080040000C0040000401400018004096
:1059E0000040014000E0004000E4004007000100EA
:1059F00070B5044690F83C000025012814D03A4BBD
:105A0000012684F83C60022084F83D0022689068FA
:105A1000184020F47F409060086870282FD010DC78
:105A200010F00F0F03D022E04FF0020070BD4FEADC
:105A30002012072A1BD2DFE802F0535353534B398D
:105A40004100B0F1101F4BD009DCB0F5805F0FD0E2
:105A5000B0F5005F1ED0B0F5801F08D140E0A0F582
:105A6000801120393CD010293AD0202938D0012586
:105A700084F83D60002084F83C00284670BD4A68E8
:105A80002068D1E9021302F01FFA2068816841F012
:105A9000770109E04A682068D1E9021302F014FA9C
:105AA0002068816841F480418160E1E7CA68496803
:105AB000206802F01DFA2068502106E0CA68496893
:105AC000206802F026FA2068602102F007FACFE78A
:105AD000CA684968206802F00BFA20684021F4E7A0
