:020000040800F2
:10000000188C0124A5030008778900086D7B00087F
:1000100075890008C90A0008F1A500080000000061
:10002000000000000000000000000000E1020008E5
:10003000250D0008000000003D030008059C000895
:10004000BF030008BF030008BF030008BF03000888
:10005000BF030008BF030008BF030008BF03000878
:10006000BF030008BF030008BF030008550B0008CA
:10007000BF030008BF030008BF030008BF03000858
:10008000BF030008BF030008BF030008BF03000848
:10009000BF030008BF030008BF030008BF03000838
:1000A000BF030008BF030008BF030008BF03000828
:1000B000BF030008E99D0008BF030008BF03000854
:1000C000BF030008BF030008BF030008BF03000808
:1000D000BF030008BF030008BF030008BF030008F8
:1000E000BF030008BF03000800000000BF030008B2
:1000F000BF030008BF030008BF030008BF030008D8
:10010000BF030008BF030008BF030008BF030008C7
:10011000BF030008BF030008BF030008BF030008B7
:10012000BF030008BF030008BF030008BF030008A7
:10013000BF030008BF030008BF030008BF03000897
:1001400000000000000000000000000000000000AF
:10015000BF030008BF030008BF030008BF03000877
:10016000BF030008BF030008BF030008BF03000867
:10017000BF030008BF030008BF0300080000000021
:10018000BF030008BF030008BF030008BF03000847
:10019000BF030008BF030008BF030008BF03000837
:1001A000BF030008BF030008610B00080000000047
:1001B000BF030008BF030008BF030008BF03000817
:1001C000BF030008BF03000800000000000000009B
:1001D0000000000000000000BF0300080000000055
:1001E000000000000000000000000000000000000F
:1001F0000000000000000000BF030008BF0300086B
:10020000BF030008BF03000800000000BF03000890
:10021000BF030008BF030008BF030008BF030008B6
:10022000BF03000800000000BF030008000000003A
:10023000BF030008BF03000800000000BF03000860
:10024000BF030008BF030008BF030008BF03000886
:10025000BF030008BF030008BF030008BF03000876
:10026000BF030008BF030008BF030008BF03000866
:10027000BF030008BF030008BF0300080000000020
:10028000BF030008BF030008BF030008BF03000846
:1002900000000000BF030008BF03000800000000CA
:1002A00000000000BF030008BF030008BF030008F0
:1002B000BF030008BF030008BF030008BF03000816
:1002C000BF030008DD9D0008BF030008DFF80CD065
:1002D00000F0E8FA0048004771F70208188C012482
:1002E0002D4B19680868B0E8F04F80F30988BFF318
:1002F0006F8F4FF0000080F31188704700000000FE
:1003000008480068006880F308884FF0000080F318
:10031000148862B661B6BFF34F8FBFF36F8F00DFF3
:1003200000BF00BF08ED00E0DFF80C00016841F4F9
:1003300070010160704700BF88ED00E0EFF30980B5
:10034000BFF36F8F144B1A681EF0100F08BF20ED1B
:10035000108A20E9F04F106009B44FF0500072B6D7
:1003600080F31188BFF34F8FBFF36F8F62B635F004
:1003700003F94FF0000080F3118809BC1968086880
:10038000B0E8F04F1EF0100F08BFB0EC108A80F3F9
:100390000988BFF36F8F7047B4000024EFF3058026
:1003A000704700000648804706480047FEE7FEE722
:1003B000FEE7FEE7FEE7FEE7FEE7FEE7FEE7FEE715
:1003C000F99C0008CD0200082DE9F05F05460020E9
:1003D00092469B4688460646814640241BE02846B6
:1003E00041464746224600F095F853465A46C01A01
:1003F000914110D311461846224600F07CF82D1A80
:1004000067EB01084F4622460120002100F073F8F7
:1004100017EB00094E41201EA4F10104DFDC484621
:1004200031462A464346BDE8F09F10B5431A934231
:1004300009D28318881803E010F8011D03F8011D84
:10044000521EF9D210BD40EA01039B0703D009E018
:1004500008C9121F08C0042AFAD203E011F8013BB0
:1004600000F8013B521EF9D210BDD2B201E000F8F3
:10047000012B491EFBD270470022F6E710B5134648
:100480000A4604461946FFF7F0FF204610BD421CFD
:1004900010F8011B0029FBD1801A704710B500220B
:1004A00000E0521C835C8C5CA34201D1002BF8D18C
:1004B000D8B2E1B2401A10BD034611F8012B00F882
:1004C000012B002AF9D11846704730B50B4601467A
:1004D00000202022012409E021FA02F59D4205D3E3
:1004E00003FA02F5491B04FA02F52844151EA2F18D
:1004F0000102F1DC30BD202A04DB203A00FA02F1CF
:10050000002070479140C2F1200320FA03F3194301
:1005100090407047202A04DB203A21FA02F00021A3
:10052000704721FA02F3D040C2F120029140084303
:10053000194670472DE9FE4F804681EA0300C00F3F
:100540000C46009021F0004123F00045B8EB02007A
:10055000A94105D24046214690461C460B4602461C
:1005600023F00040104347D0270DC7F30A00C3F320
:100570000A510290401A019040286BDAC3F313002D
:1005800040F4801B0098924620B10023D2EB030A6E
:1005900063EB0B0B01985946C0F140025046FFF740
:1005A000AAFF06460D4650465946019A00F08CF9BE
:1005B00010EB08006141002487EA115284EAE773D6
:1005C0001A4340D0009A62B3019A012A4FEA0752B7
:1005D00015DC001B61EB02014FF0004202EA0752FA
:1005E000CDE90042001C41F5801132462B4600F057
:1005F0008CF903B0BDE8F08F40462146F9E7001BB7
:1006000061EB0201001C41F5801300185B412018CA
:10061000A2F5001747EB030140EAD570B6196D410A
:1006200011E06D084FEA360645EAC0754FEA0752F9
:10063000001B61EB0201001C41F5801149084FEAE3
:1006400030000019514132462B4603B0BDE8F04F4F
:1006500000F04CB90098012240000023D0EB0202C8
:1006600063EBE073009821464FEAE074B8EB0000BA
:1006700061EB0401E9E783F000435BE781F00041AF
:1006800058E72DE9FE4F81EA030404F0004421F00D
:10069000004100944FF0000B23F0004350EA0104A6
:1006A0005ED052EA03045BD0C3F30A54C1F30A5587
:1006B0002C44A4F2F3340194A0FB0254C1F31301BF
:1006C00041F48011C3F3130343F4801301FB02448C
:1006D00000FB034E840A970A44EA815447EA835791
:1006E000A4FB076802958D0A05FB07854FEA932C4A
:1006F00004FB0C542705029D4FEA065847EA1637BB
:10070000B5EB08056EEB070C870E920E47EA8117D2
:1007100042EA8312A7FB0201B6EB0B0164EB000473
:100720002B0D43EA0C335E1844EB1C50DA4651465D
:10073000E7FB0201C5F313044FEA0B3343EA1453FA
:100740004FEA0432019C43EA0603A4F10C0402942C
:10075000009CCDE900B400F0D8F803B0BDE8F08FFC
:1007600000200146F9E72DE9F04D81EA030404F089
:10077000004B21F0004514464FF0000A23F00041E1
:1007800050EA050220D054EA01021DD0C5F30A57F1
:100790000246C5F31303C1F31300C1F30A5640F434
:1007A000801543F48013A7EB0608101BD64608F209
:1007B000FD3873EB050002D308F1010801E092183F
:1007C0005B41B8F1000F03DA00200146BDE8F08D6F
:1007D00000204FF48011064684460EE0171B73EB91
:1007E000050705D3121B63EB050306434CEA010C16
:1007F00049084FEA300092185B4150EA0107EDD1F9
:1008000052EA030012D082EA040083EA0501084399
:1008100005D0101BAB4106D20122002306E00022C6
:100820004FF0004302E06FF0010253101AEB060094
:100830004CEB085110EB0A0041EB0B01BDE8F04D09
:1008400000F054B8C1F30A52C1F3130140F2FF3370
:1008500041F480119A4202DA00200146704740F2CA
:1008600033439A42A2F2334202DC5242FFF752BEB5
:10087000FFF741BE30B5041E71F1000404DB4FF0F8
:100880000044404264EB0101141E73F1000405DBD7
:100890001C464FF00043524263EB0403994208BFE9
:1008A000904230BD064C074D06E0E06840F0010381
:1008B00094E8070098471034AC42F6D3FFF70AFDDE
:1008C00020B5030840B50308202A06DBCB17203AE1
:1008D00041FA02F043EAE07306E041FA02F3D04045
:1008E000C2F12002914008431946704710B5141E0A
:1008F00073F1000408DA401C41F1000192185B41D9
:100900001A4301D120F0010010BD2DE9F04D9246AF
:100910009B4611B1B1FA81F202E0B0FA80F22032C6
:100920009046FFF7E8FD04460F4640EA0A0041EA18
:100930000B0153465A46084313D0114653EA0100AF
:1009400019D0C8F140025046FFF7E4FD05460E46B7
:10095000504659464246FFF7CEFD084305D00120D8
:1009600004E020463946BDE8F08D0020054346EA04
:10097000E0762C4337430A986305E40AA0EB0800AD
:100980000022FD0A44EA47540A3002D500200146FD
:10099000E9E7010510196941DDE9084500196941D8
:1009A000BDE8F04DA2E770B58C1810F8015B15F0AA
:1009B000070301D110F8013B2A1106D110F8012BD1
:1009C00003E010F8016B01F8016B5B1EF9D12B07F6
:1009D00005D40023521E0DD401F8013BFAE710F8AC
:1009E000013BCB1A921C03E013F8015B01F8015B99
:1009F000521EF9D5A142D8D3002070BD10B50548CC
:100A00000124022101F08CFF002818BF0024204699
:100A100010BD0000000802580146014805F020BF43
:100A2000A8320024044810B505F02CFF042814BF98
:100A30000120002010BD0000A832002410B500F0F5
:100A400015F801281CBF022010BD074806F01CF84D
:100A5000040007D104484FF4804105F04DFD002803
:100A600018BF0124204610BDA832002408B501207B
:100A70008DF80000FFF7C2FF002804BF00208DF8AA
:100A800000009DF8000008BD38B50024009313460F
:100A90000A460146034806F021FA002818BF01243F
:100AA000204638BDA832002438B5002400931346F0
:100AB0000A460146034806F017FB002818BF012428
:100AC000204638BDA8320024FEE70000144F00265F
:100AD000DFF8508082B0144D4FF00109134C00BF75
:100AE00038684FF0FF3135F079F8164810A1D4F886
:100AF000B42509F065FDD4F8B40508EBC01112481F
:100B000007F0B8F984F8AD950022009611460F4B16
:100B1000286822F037FD0E4805F0FFF8E0E70000F6
:100B200014000024008000C0400000244C23002456
:100B30006D757369635F706C61795F6E6F773A256D
:100B4000750D0A00EC2F00244C03002400B00308AC
:100B500098310024014800F0D1BE0000303200245A
:100B6000014800F04BBA0000FC2D0024244A016823
:100B700091421CBF234A91422CD0234A91421CBF70
:100B8000224A914226D0224A91421CBF214A9142D8
:100B900020D0214A91421CBF204A91421AD0204ABB
:100BA00091421CBF1F4A914214D01F4A91421CBF60
:100BB0001E4A91420ED01E4A91421CBF1D4A9142CC
:100BC00008D01D4A91421FBF1C4A914221F0FF01EB
:100BD000816512D11A4ACBB2A3F110036FF3090158
:100BE000A2FB03324FEA1212032A02F00703154A4E
:100BF000D25CC26588BF091D816508467047000048
:100C0000100002402800024040000240580002400C
:100C10007000024088000240A0000240B80002407C
:100C200010040240280402404004024058040240DC
:100C30007004024088040240A0040240B80402404C
:100C4000ABAAAAAAD4AC03084DF8044D254CD0F8A1
:100C500000C0A4451CBF244CA44529D0234CA44566
:100C60001CBF234CA44523D0224CA4451CBF224CBE
:100C7000A4451DD0214CA4451CBF214CA44517D030
:100C8000204CA4451CBF204CA44511D01F4CA445AA
:100C90001CBF1F4CA4450BD01E4CA4451CBF1E4CB2
:100CA000A44505D01D4CA4451CBF1D4CA44512D124
:100CB000CCF804308368402B06D103689A60006842
:100CC000C1605DF8044B7047036899600068C260BA
:100CD0005DF8044B7047CCF804308368402BF3D1A7
:100CE000EBE70000100002402800024040000240F4
:100CF000580002407000024088000240A0000240FC
:100D0000B80002401004024028040240400402409F
:100D1000580402407004024088040240A0040240CB
:100D2000B804024070470000064802A109F048FCE0
:100D300072B6FEE74572726F725F48616E646C65F1
:100D4000720D0A00EC2F0024134A4DF8044D92F85E
:100D500009C00123BCF1000F19D1547A02F1080334
:100D60004FF0000C02F804C0547A02EB8404606077
:100D7000507A00F803C0507A431C53723A246346F9
:100D80002F22303008704C708A7081F803C01846EA
:100D90005DF8044B704700000C4C01242DE9F00174
:100DA000D1E90832D1F81CC00C68F4B104684CEAEF
:100DB000030324F4F84422431A430260D1E9012CCE
:100DC000D1E903454B6942EA0C0C42682C4389691E
:100DD0004CEA040C4CEA030319436FF30E0211436F
:100DE0004160BDE8F001002070470C1DD1E90561AC
:100DF00094E8B0012C4347EA08052C4334430C43E4
:100E0000016844EA0C0C4CEA03031A436FF30E0129
:100E100011430160E5E742696FF34D0242EA410187
:100E200041610020704730B4D1E90225D1E9003C8E
:100E300001696FF01F0404EB421443EA0C0244EA18
:100E400045236FF315011A431143016130BC0020A3
:100E5000704700002DE9F00FB1F814C0002A2D4CA6
:100E60004FF07F46CB6804EB0C526FF0FF046FF03D
:100E70000F0C4FEA042527D087681B03A3F5805386
:100E800027F470471A4327F470073A438260D1E988
:100E900000278B680CEB071C571E0A8A097E04EB9F
:100EA0000323C46847EA0C0C05EB02424CEA030337
:100EB0001A4306EB0161114304F070431943C1600A
:100EC000BDE8F00F00207047D1E90087D1F8089005
:100ED000DFF844A0B1F810B00CEB071C097EA8F1B4
:100EE000010704EB092447EA0C0C0AEB03334CEA34
:100EF000040C4CEA030C836805EB0B444CEA040C2D
:100F000006EB01614CEA0202114303F070431943FE
:100F10008160D5E70000F0FF00F0FFFF70470000A0
:100F200090F86020012A04BF02207047F0B4C1EBA2
:100F3000C103012580F86050022280F8612000EB97
:100F400083032C4C03F12802D3F82CC0178A1B8E84
:100F5000968A3F054CEA034347EA4656BCF10A0F1E
:100F600043EA060311BFBCF1090FD66806F07F46BD
:100F700033431CBF167B43EA066319B1BCF10B0F68
:100F800016D019E00168D1F824C02CEA040C4CEA10
:100F900003034B62016813688B6151680A2918BF0B
:100FA00009291ED1D168026821F07F41916218E0C1
:100FB000118B114C43EA81430168D1F81CC02CEA23
:100FC000040C4CEA0303CB61016813680B615168A0
:100FD0000A2918BF092904D1D168026821F07F418C
:100FE00011624FF0000180F8615080F860100846EF
:100FF000F0BC70470F0033FF0F003FFF2DE9F047B3
:101000000446006800274FF004084FF001094668C5
:10101000056816F0010F18BF15F4807F13D0016822
:1010200021F480710160606E40F00100606620680C
:10103000C0F8089084F8618084F86070616A0029C3
:101040001CBF2046884716F0200F18BF15F4005F1C
:1010500015D020684FF02001026822F4005202608F
:1010600020688160606E40F00200606684F86180F4
:1010700084F86070616A00291CBF2046884716F01A
:10108000080F18BF15F4006F15D020684FF0080145
:10109000026822F40062026020688160606E40F0A5
:1010A0000400606684F8618084F86070616A0029D9
:1010B0001CBF2046884716F0040F18BF15F4806F38
:1010C0000AD02068016821F4806101602068C0F8BE
:1010D0000880204600F078F816F0020F18BF15F4CB
:1010E000007F13D020684FF00201026822F40072E2
:1010F000026020688160606E606684F8619084F8A8
:101100006070216A00291CBF2046884716F0100F26
:1011100014BF15F4805FBDE8F0872068016821F4F2
:101120008051016021684FF010008860606E606639
:1011300084F86190204684F86070FFF7EFFEBDE808
:10114000F087002804BF0120704770B5044690F86E
:101150006100002520B9204684F8605000F036F880
:10116000022084F86100D4E90002E3690121D0F88B
:1011700000C01A432CF0400323F4E0231A4302601A
:101180002068A369A268D0F834C01A432CF0070382
:1011900023F480731A4342632068E368026C6FF3A0
:1011A0000F021A4302642068228AA38AD0F834C04E
:1011B000120542EA43522CF440131A434263656617
:1011C00084F86110002070BD7047000008B5006809
:1011D000A0F1A441B1F5805118BF08BD09480168CC
:1011E00041F010010160006800220A2100F01000A7
:1011F00000905A2001F0FEFEBDE808405A2001F0A0
:10120000E9BE0000D44402582DE9FF4F81B0816847
:1012100004460020DDF838E08029009016D094F8CC
:101220003400012802BF022005B0BDE8F08F012183
:1012300094F8350084F8341001280ED0C90201203A
:1012400000906165009805B0BDE8F08F4FF48070A4
:10125000606505B00120BDE8F08FCF4A0225206807
:101260004FF0000C84F835509042CC4DC4F854C077
:10127000CB4ECC4FDFF83083DFF83093DFF830A36C
:10128000DFF830B318BFA84223D0B04218BFB8422D
:101290001FD0404518BF48451BD0504518BF584582
:1012A00017D0C54A90421CBFC44A904211D0C44ACC
:1012B00090421CBFC34A90420BD0C34A90421CBF0D
:1012C000C24A904205D0C24A90421CBFC14A9042D5
:1012D00010D102684FF03F0142F480220260206882
:1012E000036194F85C20A06D02F01F0201FA02F184
:1012F00081600FE0026848F2200C42EA0C020260B2
:101300002068036194F85C20A06D02F01F0201FACE
:1013100002F141607346DDE902122046FFF794FCBA
:10132000DFF874E22068AC49AC4A7045AC4B18BF9A
:10133000A84245D0B04218BFB84241D0404518BF7E
:1013400048453DD0504518BF584539D0DFF868C2F0
:1013500060451CBFDFF864C2604531D0DFF860C271
:1013600060451CBFDFF85CC2604529D0DFF858C279
:1013700060451CBFDFF854C2604521D0DFF850C281
:1013800060451CBFDFF84CC2604519D0DFF854C27D
:10139000604518BF884213D090421CBFDFF848C296
:1013A00060450DD0DFF844C260451CBFDFF840C285
:1013B000604505D0DFF83CC2604518BF98420AD1AD
:1013C000D4E9190CC0F804C0E06E00281CBFD4E9B1
:1013D0001C0CC0F804C0F4462068604518BFA84241
:1013E0002BD0B04218BFB84227D0404518BF48455F
:1013F00023D0504518BF58451FD0DFF8BCE17045D9
:101400001CBFDFF8B8E1704517D0DFF8B4E17045D4
:101410001CBFDFF8B0E170450FD0DFF8ACE17045DC
:101420001CBFDFF8A8E1704507D0DFF8A4E17045E4
:101430001CBFDFF8A0E170451AD1D0F800E02EF013
:101440001E0E4EF0160EC0F800E02068D0F814E032
:101450004EF0800EC0F814E0206C002804BFA06C91
:1014600000281AD02068D0F800E04EF0080E12E0F4
:10147000D0F800E02EF00E0E4EF00A0EC0F800E09C
:10148000206C002804BFA06C002806D02068D0F88B
:1014900000E04EF0040EC0F800E02068E64670451B
:1014A00018BFA84241D0B04218BFB8423DD0404515
:1014B00018BF484539D0504518BF584535D0DFF8DA
:1014C000F8C060451CBFDFF8F4C060452DD0DFF8E0
:1014D000F0C060451CBFDFF8ECC0604525D0DFF8E8
:1014E000E8C060451CBFDFF8E4C060451DD0DFF8F0
:1014F000E0C060451CBFDFF8DCC0604515D0DFF8F8
:10150000E4C0604518BF88420FD090421CBF3649E6
:1015100088420AD0354988421CBF3549884204D0E8
:101520003449884218BF98420ED1206E016811F4E8
:10153000803F03D0016841F480710160E06E18B112
:10154000016841F4807101602068704518BFA842AD
:101550001DD0B04218BFB84219D0404518BF484509
:1015600015D0504518BF584511D0134988421CBFAB
:10157000124988420BD0124988421CBF1149884247
:1015800005D0114988421EBF1049884210490168A0
:1015900041F00101016055E61000024028000240C0
:1015A00040000240580002407000024088000240A3
:1015B000A0000240B800024010040240280402408B
:1015C0004004024058040240700402408804024073
:1015D000A0040240B80402401C540258305402587F
:1015E000945402580854025844540258585402580B
:1015F0006C54025880540258002804BF01207047E0
:101600002DE9F05F9A4D044600689A499A4AA8422B
:101610009A4BDFF86CC2DFF86CE218BF884223D027
:10162000904218BF98421FD0604518BF70451BD02C
:10163000954EB0421CBF954EB04215D0944EB0426C
:101640001CBF944EB0420FD0934EB0421CBF934E7D
:10165000B04209D0924EB0421CBF924EB04203D06D
:10166000914EB04218BF914E066826F00106066002
:1016700020684FF001068E4FDFF83882A842DFF86D
:1016800038924FF00005DFF834A2DFF834B218BF0B
:10169000884225D0904218BF984221D0604518BF9B
:1016A00070451DD0784988421CBF7849884217D0C0
:1016B000774988421CBF7749884211D076498842D1
:1016C0001CBF764988420BD0754988421CBF7549BA
:1016D000884205D0744988421CBF7449884217D19A
:1016E0004FF0210105602068456020688560206812
:1016F000C56020680561206841612046FFF736FA21
:1017000094F85C203F2102F01F029140816027E0A5
:101710006C49884218BFB8420FD0404518BF4845B1
:101720000BD0504518BF584507D0674988421FBFA6
:10173000664988420120BDE8F09F05602068456049
:10174000206885602068C560206805612046FFF735
:101750000DFA94F85C1001F01F0106FA01F14160E6
:10176000584A2068904218BFB8420DD0404518BF73
:10177000484509D0504518BF584505D052498842C0
:101780001CBF524988423AD1C1B25148A1F1080365
:101790005049A0FB0330504B63664FEA101000F035
:1017A0001F0301EB800006FA03F1A166206618B161
:1017B0000560D4E9190141606068A0F101010729C1
:1017C00044D8C1B24B1E072B3BD82068904218BFAB
:1017D000B8420DD0404518BF484509D0504518BF04
:1017E000584505D0384A90421CBF384A90421FD114
:1017F0003B483A4A02EB8101C4E91B101EE039491B
:10180000C3B2A3F1100C384BA1FB0CC11844A8289B
:101810004FEA111098BF0830344900F01F0301EB64
:101820008000334906FA03F3A366C4E91801BEE752
:101830003148304A02EB8101C4E91B1006FA03F07B
:101840006067E06E0560D4E91C014160E5662567CC
:101850006567E56325646564A564E564256565657C
:1018600084F83550002084F83450BDE8F09F000023
:101870001000024028000240400002405800024090
:101880007000024088000240A0000240B800024000
:101890001004024028040240400402405804024060
:1018A0007004024088040240A0040240B8040240D0
:1018B0001C54025830540258445402585854025888
:1018C0006C540258085402588054025894540258D8
:1018D000CDCCCCCC0058025880580258FC58025845
:1018E00040590258ABAAAAAAF0FBFDBF000802406B
:1018F00080080240FC080240400902402DE9F84FF0
:101900000446DFF800840020DFF8009400904FF4D4
:101910001652FD48A56DFE4EFE4F01682068B1FBD2
:10192000F2FBD5F800A0404529681CBFF74A904259
:101930002BD0B04218BFB84227D0F74A90421CBF04
:10194000F64A904221D0F64A90421CBFF54A904296
:101950001BD0F54A90421CBFF44A904215D0F44A7D
:1019600090421CBFF34A90420FD0F34B98421CBFE9
:10197000DFF8C8C3604508D0DFF8C4E370451CBF7A
:10198000DFF8C0E3704540F0308294F85C204FF0FF
:10199000080102F01F0201FA02F212EA0A0F41D016
:1019A000404518BF48452AD0B04218BFB84226D09B
:1019B000D94A90421CBFD94A904220D0D84A90427E
:1019C0001CBFD84A90421AD0D74A90421CBFD74A6F
:1019D000904214D0D64A90421CBFD64A90420ED0B4
:1019E000D54A90421CBFD54A904208D0D44A904272
:1019F0001FBFD44A9042026802F0080202D1026876
:101A000002F0040272B1026822F00402026094F84B
:101A10005C0000F01F0001FA00F0A860606D40F06B
:101A20000100606594F85C0000F01F014FF00100B8
:101A300000FA01F111EA0A0F36D02068404518BFBC
:101A4000484528D0B04218BFB84224D0B24A90428C
:101A50001CBFB24A90421ED0B14A90421CBFB14A4C
:101A6000904218D0B04A90421CBFB04A904212D067
:101A7000AF4A90421CBFAF4A90420CD0AE4A90424F
:101A80001CBFAE4A904206D0AD4A90421EBFAD4A3E
:101A90009042006808D1406910F0800F04D0A9601E
:101AA000606D40F00200606594F85C0000F01F017A
:101AB0004FF0040000FA01F111EA0A0F36D0206855
:101AC000404518BF484528D0B04218BFB84224D07E
:101AD000914A90421CBF914A90421ED0904A904237
:101AE0001CBF904A904218D08F4A90421CBF8F4A28
:101AF000904212D08E4A90421CBF8E4A90420CD027
:101B00008D4A90421CBF8D4A904206D08C4A90422A
:101B10001EBF8C4A9042006808D1006810F0020F86
:101B200004D0A960606D40F00400606594F85C101A
:101B30004FF0100001F01F0100FA01F111EA0A0F45
:101B40004FD02068404518BF48452AD0B04218BF42
:101B5000B84226D0704A90421CBF704A904220D0B2
:101B60006F4A90421CBF6F4A90421AD06E4A904210
:101B70001CBF6E4A904214D06D4A90421CBF6D4A01
:101B800090420ED06C4A90421CBF6C4A904208D0E2
:101B90006B4A90421FBF6B4A9042006800F00400FD
:101BA00002D1006800F00800D8B1A960206801687F
:101BB00011F4802F09D0006810F4002F02D0A16C1E
:101BC00079B10CE0216C51B90BE0016811F4807F10
:101BD00003D1016821F008010160216C09B12046A0
:101BE000884794F85C10202001F01F0100FA01F1F1
:101BF00011EA0A0F6ED02068404518BF48452AD028
:101C0000B04218BFB84226D0434A90421CBF434A54
:101C1000904220D0424A90421CBF424A90421AD081
:101C2000414A90421CBF414A904214D0404A9042DF
:101C30001CBF404A90420ED03F4A90421CBF3F4AD0
:101C4000904208D03E4A90421FBF3E4A90420068F0
:101C500000F0020002D1006800F01000D0B3A960CB
:101C600094F8350004282068016809D011F4802F09
:101C700034D0006810F4002F2DD0E16B51B33DE05B
:101C800021F0160101602068416921F08001416165
:101C9000206C002804BFA06C002804D020680168D4
:101CA00021F00801016094F85C304FF03F024FF0E2
:101CB00001004FF0000103F01F0302FA03F2AA60D3
:101CC00084F8350084F83410216D002940F08C81AF
:101CD000BDE8F88F14E0616C81B911E0016811F47E
:101CE000807F09D103680121002223F010030360E3
:101CF00084F8351084F83420E16B09B12046884718
:101D0000606D21E0100002402C03002428000240F6
:101D1000400002405800024070000240880002402B
:101D2000A0000240B8000240100402402804024013
:101D300040040240580402407004024088040240FB
:101D4000A0040240B8040240002808BFBDE8F88F94
:101D5000606D10F0010F43D02068042184F8351025
:101D6000404518BF484521D0B04218BFB8421DD0E9
:101D7000A04988421CBFA049884217D09F49884289
:101D80001CBF9F49884211D09E4988421CBF9E4972
:101D900088420BD09D4988421CBF9D49884205D08E
:101DA0009C4988421EBF9C4988429C49016821F099
:101DB000010101602068009901F10101009159457C
:101DC00003D8016811F0010FF5D1006810F0010F80
:101DD00014BF0320012084F83500002084F834006B
:101DE000E16C00293FD1BDE8F88FDFF83492484517
:101DF0001CBFDFF83092484518D0DFF82C924845D8
:101E00001CBFDFF82892484510D0DFF824924845DF
:101E10001CBFDFF82092484508D0DFF81C924845E7
:101E20001EBFDFF818924845BDE8F88F94F85CA013
:101E30004FF0040BD0F800900AF01F0A0BFA0AFBCF
:101E40001BEA010F18BF19F0040F4BD019F4004F13
:101E5000C5F804B00DD019F4803F05D0216C0029DD
:101E600008BFBDE8F88FBFE0A16C002976D1BDE8BE
:101E7000F88F19F0200F31D1206840451CBF704900
:101E8000884227D0B04218BFB84223D0594988426F
:101E90001CBF594988421DD0584988421CBF584927
:101EA000884217D0574988421CBF5749884211D0F1
:101EB0005649884218BF90420CD0984218BF6045DE
:101EC00008D0564988421FBF5E498842016821F008
:101ED000040102D1016821F008010160216CE9BB15
:101EE000BDE8F88F4FF0020B0BFA0AFB1BEA010F5B
:101EF00018BF19F0020F54D019F4004FC5F804B000
:101F00000CD019F4803F05D0E16B002908BFBDE873
:101F1000F88F69E0616C09BBBDE8F88F19F0200FFC
:101F20003BD1206840451CBF4549884229D0B0427A
:101F300018BFB84225D02F4988421CBF2E4988427D
:101F40001FD02E4988421CBF2D49884219D02D49E7
:101F500088421CBF2C49884213D000E044E02B4942
:101F6000884218BF90420CD0984218BF604508D0F4
:101F70002A4988421FBF33498842016821F00A017B
:101F800002D1016821F0140101604FF001014FF00E
:101F9000000084F8351084F83400E16B21BBBDE803
:101FA000F88F4FF0080202FA0AF20A4214BF19F041
:101FB000080FBDE8F88F016821F00E01016094F868
:101FC0005C104FF0010001F01F0100FA01F24FF028
:101FD00000016A60606584F8350084F83410E16CB3
:101FE000002908BFBDE8F88F204601B0BDE8F04FDA
:101FF000084700007000024088000240A000024034
:10200000B80002401004024028040240400402408C
:10201000580402407004024088040240A0040240B8
:10202000085402581C540258305402584454025860
:10203000585402586C540258805402589454025810
:1020400028000240B80402402DE9F84F044600F091
:1020500071FC002C834600F04382FE494FF00106DC
:1020600020684FF00005FC4FDFF8F0838842DFF86E
:10207000F093DFF8F0A31CBFFB4988422AD0FB494C
:1020800088421CBFFA49884224D0FA4988421CBFC2
:10209000F94988421ED0F94988421CBFF849884254
:1020A00018D0F84988421CBFF749884212D0F74936
:1020B00088421CBFF64988420CD0F64988421CBFB2
:1020C000F549884206D0F54988421CBFF449884248
:1020D00040F0D380DF494FF0020284F83520884277
:1020E00084F834501CBFE049884223D0DF4988423D
:1020F0001CBFDF4988421DD0DE4988421CBFDE4933
:10210000884217D0DD4988421CBFDD49884211D082
:10211000DC4988421CBFDC4988420BD0DB4988423D
:102120001CBFDB49884205D0DA4988421EBFDA4924
:102130008842DA49016821F00101016020680068E5
:1021400010F0010F13D000BF00F0F4FBA0EB0B0068
:10215000052807D920216165032084F83500012076
:10216000BDE8F88F2068006810F0010FECD1D4E9C9
:10217000021BD4E904232068009041EA0B01D4E952
:1021800006CBD4F820E01A4300680A43C54942EA66
:102190000C02636A42EA0B02084042EA0E01042B79
:1021A00041EA000003D1D4E90B12114308436168EE
:1021B000A1F12902052A84BFA1F13F02032A09D90E
:1021C000A1F14702012A81BFA1F14F02032A74390C
:1021D000032901D840F48010009908602368606AE0
:1021E0005969042821F0070140EA010239D1D4E9F4
:1021F0000A100A4330B3D4F818C0BCF1000F0AD05B
:10220000BCF5005F14D000291CBF0129022921D090
:1022100003291CD025E019B1012905D0022920D1BC
:1022200010F0807F1DD015E0B0F1C07F19D111E012
:1022300081B1012907D002290CD0032908BFB0F1D0
:10224000C07F07D00DE010F0807F03D109E010F0CF
:10225000807F06D04FF04000606584F8356000F064
:102260003FB95A612046FEF781FC94F85C203F217B
:1022700002F01F029140816051E08B49884218BFF3
:10228000B8420FD0404518BF48450BD050451CBF41
:102290008649884206D0864988421CBF85498842C3
:1022A00040F016814FF0020184F8351084F8345064
:1022B0000168A2686FF310110091402A08BF102135
:1022C00004D0802A0CBF4FF480410021D4E903B22E
:1022D000D4E9053C41EADB01D4E907BE41EAD20179
:1022E000754A41EAD301754B41EADC0141EADB0161
:1022F00041EA1E1C00994CEA01010160206810446B
:10230000A3FB001000098000E0652046FEF72EFCCC
:1023100094F85C1001F01F0106FA01F141604D498B
:10232000206888421CBF504988423DD04F498842AE
:102330001CBF4F49884237D04E4988421CBF4E4986
:10234000884231D04D4988421CBF4D4988422BD02C
:102350004C4988421CBF4C49884225D04B49884291
:102360001CBF4B4988421FD04A4988421CBF4A497A
:10237000884219D0494988421CBF4949884213D034
:102380004949884218BFB8420ED0404518BF484559
:102390000AD050451CBF4549884205D0444988426F
:1023A0001CBF4449884253D13F4A904218BFB842AB
:1023B0000ED0404518BF48450AD050451CBF3B4988
:1023C000884205D03A4988421CBF3A49884240D1E8
:1023D000C1B23A48A1F108033949A0FB0330394B97
:1023E00063664FEA101000F01F0301EB800006FA4D
:1023F00003F1A1662066A068802808BF6560207987
:10240000216E0860D4E9190141606068411E072906
:102410007DD8C1B24B1E072B7AD82068904218BFD6
:10242000B8420ED0404518BF48450AD050451CBFA1
:102430001E4A904205D01E4A90421CBF1D4A90423F
:102440006FD12248204A02EB8101C4E91B106EE0E3
:1024500079E049E0100002401C5402583054025800
:102460004454025858540258280002404000024088
:10247000580002407000024088000240A000024064
:10248000B800024010040240280402404004024008
:10249000580402407004024088040240A004024034
:1024A000B80402403F8010FE085402586C54025891
:1024B0008054025894540258F8ABFDA7CDCCCCCC34
:1024C0000058025880580258FC5802584059025887
:1024D0004FF040014FF00300616584F8350000BF04
:1024E0004FF00100BDE8F88F1A49C3B2A3F1100CF8
:1024F000194BA1FB0CC11844A8284FEA111098BF32
:102500000830164900F01F0301EB800002E017E0DD
:1025100010E006E0124906FA03F3A366C4E91801C5
:1025200069E711480F4A02EB8101C4E91B1006FA62
:1025300003F06067E06E0560D4E91C01416002E0D1
:10254000E56625676567656584F835600020BDE848
:10255000F88F0000ABAAAAAAF0FBFDBF000802405A
:1025600080080240FC0802404009024070B5044661
:1025700000F0E0F9B4F1FF3F054602D004480078CE
:10258000044400F0D7F9401BA042FAD370BD00000C
:1025900020030024DFF860C100294FF0000208BFCB
:1025A00070472DE9F04F0F264FF0010A4FF0B04E63
:1025B0000AFA02F717EA01037ED022F0030505F1BB
:1025C000B0459407D5F808944FEA1478A0F1B04BC1
:1025D00006FA08F4BBF5003B04EA090908BF4FF00E
:1025E000000B40D0A0F1B04BBBF5013B08BF4FF052
:1025F000010B38D0A0F1B04BBBF5023B08BF4FF048
:10260000020B30D0A0F1B04BBBF5033B08BF4FF03D
:10261000030B28D0A0F1B04BBBF5043B08BF4FF033
:10262000040B20D0A0F1B04BBBF5053B08BF4FF029
:10263000050B18D0A0F1B04BBBF5063B08BF4FF01F
:10264000060B10D0A0F1B04BBBF5073B08BF4FF015
:10265000070B08D0A0F1B04BBBF5093B0CBF4FF006
:10266000090B4FF00A0B0BFA08F8C8451CD1DCF82F
:10267000008028EA0308CCF80080DCF8048028EA0F
:102680000308CCF80480DEF8048028EA0308CEF8BA
:102690000480DEF8008028EA0303CEF80030D5F885
:1026A0000834A343C5F8083403230468D5084FEA67
:1026B00042094FEA427800E017E04FEAD86803FA8F
:1026C00009F31C43046006FA08F800EB85052C6A40
:1026D00024EA08042C62C4689C43C4604468BC4378
:1026E0004460846824EA03038360521C31FA02F3D5
:1026F0007FF45EAFBDE8F08F800000580B680022C9
:10270000DFF814C2002B08BF70472DE9F84FDFF83F
:102710000CE2012703244FF00F0800BF0B6807FAF3
:1027200002F52B4000F0F0800E7906F00306012E32
:1027300018BF022E1AD1D0F808904FEA4206D1F8FD
:102740000CB004FA06FA29EA0A090BFA06F646EA78
:1027500009068660466891F8049026EA0505C9F3E3
:10276000001909FA02F646EA050545604D6834EAA3
:1027700005050BD0C5685600D1F8089004FA06FA92
:1027800025EA0A0509FA06F63543C5600D7905F014
:102790000305022D12D1D508D1F810A04FEA4279D5
:1027A00000EB85052E6A4FEAD96908FA09FB0AFA97
:1027B00009F926EA0B0649EA06062E6291F804900A
:1027C0000568560009F0030904FA06FA09FA06F644
:1027D00025EA0A05354305604D6815F4403F7CD075
:1027E000DEF8005045F00205CEF80050DEF800504B
:1027F00022F0030606F1B04605F0020500959507A4
:10280000D6F808942D0FA0F1B04A08FA05FBBAF5E6
:10281000003A29EA0B0908BF4FF0000A40D0A0F1A6
:10282000B04ABAF5013A08BF4FF0010A38D0A0F11A
:10283000B04ABAF5023A08BF4FF0020A30D0A0F110
:10284000B04ABAF5033A08BF4FF0030A28D0A0F106
:10285000B04ABAF5043A08BF4FF0040A20D0A0F1FC
:10286000B04ABAF5053A08BF4FF0050A18D0A0F1F2
:10287000B04ABAF5063A08BF4FF0060A10D0A0F1E8
:10288000B04ABAF5073A08BF4FF0070A08D0A0F1DE
:10289000B04ABAF5093A0CBF4FF0090A4FF00A0ADC
:1028A0000AFA05FA4FF0B0454AEA0909C6F8089451
:1028B000D1F804902E6819F4801F26EA030618BF89
:1028C0001E432E60D1F804906E6819F4001F26EAAA
:1028D000030618BF1E436E6000E015E0DCF80450EC
:1028E0004E6825EA030516F4003F18BF1D43CCF8D7
:1028F0000450DCF800504E6825EA030516F4803FCA
:1029000018BF1D43CCF800500B68521CD3407FF415
:1029100005AFBDE8F88F000080000058F44402586D
:102920000069084018BF01207047002A08BF090449
:1029300081617047014880687047000020030024CF
:102940004DF8044D90F84120202A27D190F84020DE
:10295000012A23D0012380F8403024224FF0000CBC
:10296000202380F841200268146824F001041460D8
:102970000268146824F480541460026814682143C7
:10298000116001680A6842F001020A6080F8413073
:1029900080F840C000205DF8044B70475DF8044BA0
:1029A000022070474DF8044D90F84120202A25D18F
:1029B00090F84020012A21D0012380F840302422C1
:1029C0004FF0200C002480F841200268136823F0A7
:1029D000010313600268136823F4706343EA012162
:1029E000116001680A6842F001020A6080F841C083
:1029F00080F8404000205DF8044B70475DF8044BC0
:102A000002207047002804BF0120704770B50446BB
:102A100090F84100002520B9204684F8405000F08D
:102A20004BF8242084F841002068016821F001015E
:102A30000160D4E9001020F07060086120688168AE
:102A400021F400418160E06821680128A0680CBF82
:102A500040F4004040F404408860E068022802D15D
:102A600021688002486020212068426842F40042C8
:102A700042F0007242602068C26822F40042C260E4
:102A8000D4F800C0D4E90402A369104340EA03204B
:102A9000CCF80C002368D4E90702104318602068C2
:102AA000026842F001020260656484F84110256307
:102AB00084F84250002070BD30B5B5B00546002402
:102AC0006846B8212E942F94309431943294FDF7B7
:102AD000D3FC2868A0F18041B1F5A8411CBF35B0F6
:102AE00030BD082000212094CDE90001684601F0A6
:102AF000EFFC002818BFFEF717F91048016841F0F5
:102B00000201016000681221042200F002003390EB
:102B10004FF440702E90CDE92F1409482EA9CDE92D
:102B20003142FFF7EBFD0748016841F400110160F5
:102B3000006800F40010339035B030BDE044025816
:102B400000040258E844025802488168027811449F
:102B50008160704720030024032010B500F07AFA4A
:102B600002F0E2FB0F4A104913681268C3F3032313
:102B700002F00F02CB5C895C03F01F0201F01F0121
:102B8000D0400A4A20FA01F11160094908600F207B
:102B900000F010F800281CBF012010BD00F00CFA56
:102BA000002010BD1844025804AD0308300300246F
:102BB0002C03002410B5102804468AB02CD2002221
:102BC0000146A12000F016FAA12000F003FA1648F1
:102BD00004601648016841F080710160006808A92E
:102BE00000F080700990684602F0E8FA02F06EFB8F
:102BF0000F4940000022DFF83CC0B0FBF1F10E4865
:102C000040F2E733C0F800C0C0E90332491EC0E912
:102C1000011204F0D7FB10B10AB0012010BD064824
:102C200004F020FC0AB010BD24030024EC44025838
:102C300040420F0000E00040703300242DE9F05FB7
:102C4000044690F8A000012804BF0220BDE8F09FD0
:102C50000125022002EB820384F8A05084F8A10031
:102C600003EBC200B1E8C81F04EB80003830A0E8D5
:102C7000C81F91E8C811203980E8C811204605F026
:102C800083FA216800204D6284F8A15084F8A000E6
:102C9000BDE8F09F002804BF0120704770B50446CE
:102CA00090F8A100002520B9204684F8A05000F03B
:102CB0007BF83C48022184F8A110012221688B692D
:102CC00023F070438B61D4E9013C43EA0C03D4E95F
:102CD000031C41EA0C0C216843EA0C03D1F818C02C
:102CE00043EA0C038B6121688B6803408B60216889
:102CF000A38AD4F818C08E6846EA0C0C4CEA034349
:102D00008B602168CB680340CB602168A38BD4F82B
:102D100020C0CE6846EA0C0C4CEA0343CB60216825
:102D20000B6903400B612168A38CD4F828C00E699D
:102D300046EA0C0C4CEA03430B6121684B691840CE
:102D400048612068A18D236BD0F814C04CEA0303BE
:102D500043EA01414161216894F8350094F8363026
:102D6000D1F82CC01B040CF07F4CC1F82CC043EAF6
:102D70000021206894F83430D0F82CC04CEA0303CA
:102D80001943C1622068416B41F00601416320682C
:102D9000816941F001018161C4F8A45084F8A12047
:102DA000002070BD00F800F02DE9F04FB5B00546E9
:102DB0000024B82106A8009401940294039404947A
:102DC000FDF75AFB2868A0F1A041B1F580511CBF66
:102DD00035B0BDE8F08F4FF000504FF004080127E8
:102DE00000211297CDE910784FF44062CDE9152407
:102DF000CDE90601179406A8CDE9137801F068FB28
:102E0000002818BFFDF790FF6348016841F00801F2
:102E10000160006800F0080005906048016841F01A
:102E200010010160016801F010010591016841F095
:102E300001010160016801F001010591016841F0A3
:102E400004010160016801F004010591016841F08D
:102E500002010160016801F002010591016841F081
:102E600040010160016801F040010591016841F0F5
:102E70000801016000680E260225694600F008007E
:102E800005904FF482500090CDE901544448CDE9BB
:102E90000346FFF733FC49F656000090CDE9015494
:102EA00040486946CDE90346FFF728FC4FF0090981
:102EB0004FF0080ACDF800A06946CDE90154394821
:102EC000CDE90349FFF71AFC41F2F0000090DFF86A
:102ED000D8B06946CDE90154CDE903465846FFF71D
:102EE0000DFC00976946314FCDE90154CDE9034906
:102EF0003846FFF703FC40F602400090CDE901544C
:102F0000CDE9034669463846FFF7F8FB4FF4C14068
:102F10000090CDE9015426486946CDE90346FFF704
:102F2000EDFB4FF4C0600294CDE900050A2069462C
:102F3000CDE903405846FFF7E1FBE8010294CDE9F3
:102F400000050D206946CDE903401648FFF7D6FB82
:102F5000CDF800806946DFF85C80CDE90154CDE909
:102F600003494046FFF7CAFBCDF800A06946CDE90A
:102F70000154CDE903464046FFF7C0FB0321202062
:102F80000090CDE90154CDE9034169463846FFF789
:102F9000B5FB35B0BDE8F08FE4440258E044025878
:102FA000001002580000025800080258000402589D
:102FB00000180258000C0258054881B0016841F021
:102FC00002010160006800F00200009001B070474B
:102FD000F44402580028B8BF7047410900F01F00B0
:102FE0008A00012102F1E02201FA00F0C2F800019A
:102FF00070470000164B30B41B68C3F30223C3F1C3
:10300000070CBCF1040F88BF4FF0040C1C1D072CEB
:1030100034BF0023DB1E012404FA0CFC04FA03F580
:10302000ACF101042140A5F1010C99400CEA020227
:10303000114300284FEA0111B8BF00F00F0000F162
:10304000E020ACBF80F8001480F8141D30BC70473D
:103050000CED00E0074900F007004FF6FF030A6897
:103060001A4042EA002040F0FD7040F080600860A5
:10307000704700000CED00E02DE9F04FD0F800C0E3
:1030800099B082460020ACF1A4430F90B3F5A04361
:1030900007BF4FF0000901224FF0010900221292F0
:1030A0005FF000024FF0000402F1010B02EB42035B
:1030B0006A4602EBC3031BF0FF0279D0022A77D8DD
:1030C000002B75D0A446C3F800C0C3F804C0022A80
:1030D000C3F808C0C3F80CC0C3F810C05FD000BF6D
:1030E00004F002084FF0000C04F0200704F400760E
:1030F00004F4802504F080644FEA8C0202F1A442BB
:1031000002F53042D2F8042412F0010F07D002F089
:10311000020EC64504BF0CF1010EC3F800E012F028
:10312000100F07D002F0200EBE4504BF0CF1010EB7
:10313000C3F804E012F4807F07D002F4007EB645A5
:1031400004BF0CF1010EC3F808E012F4803F0ED06A
:1031500002F4802EAE450AD112F4003F0CF1010EAC
:1031600014BF4EF0807E4EF4803EC3F80CE012F0A7
:10317000807F0DD002F0806EA64509D112F0007F4D
:103180000CF1010214BF42F0807242F480321A61E5
:103190000CF1010CBCF1020FAED30DE008E0F94ACE
:1031A000126812F0010F14BF4FF40074F64C97E749
:1031B0000822CAF8542001200BF0FF02022AFFF473
:1031C00071AF00281CBF19B0BDE8F08FEF4C22682A
:1031D00012F0010F07D00F9A42F001020F922268FD
:1031E00022F001022260EA4D2A6812F0010F07D096
:1031F0000F9A42F002020F922A6822F001022A601E
:1032000009EB49026E460123DFF878C306EBC202E0
:103210009768BF0007F1A44707F53047D7F8008447
:1032200028F48078C7F80084DCF8007017F0010FEC
:103230003ED0129A012ADCF8002022F00102CCF8DC
:1032400000206FD1069A920002F1A44202F53042AA
:10325000D2F8007447F00207C2F80074079A52B11E
:10326000920002F1A44202F53042D2F8007447F015
:103270002007C2F80074099A62B123EA02029200A0
:1032800002F1A44202F53042D2F8047447F48027D8
:10329000C2F804740A9AE2B323EA0202920002F12D
:1032A000A44202F53042D2F8047447F0806737E058
:1032B000176877B3BF0007F1A44707F53047D7F881
:1032C000008428F00108C7F80084576857B1BF0090
:1032D00007F1A44707F53047D7F8008428F0100815
:1032E000C7F80084D76867B123EA0707BF0007F172
:1032F000A44707F53047D7F8048428F48038C7F886
:10330000048412692AB123EA0202920002F1A44263
:1033100000E007E002F53042D2F8047427F080772D
:10332000C2F80474129A0F6802EB420206EBC20262
:103330001668B74217D0D1F80480D2F804A0D0455F
:1033400011D0D1F80880D2F808A0D0450BD0D1F820
:103350000C80D2F80CA0D04505D0D1F81080D2F85E
:1033600010A0D04559D1B74215D14F68D2F804808A
:10337000474510D1CF68D2F80C8047450BD10F6973
:10338000D2F81080474506D1DCF8002042F0010257
:10339000CCF8002041E0B60006F1A44606F5304620
:1033A000D6F8007427F00107C6F80074566856B1C5
:1033B000B60006F1A44606F53046D6F8007427F0AC
:1033C0001007C6F800749668B60006F1A44606F524
:1033D0003046D6F8007427F48077C6F80074D668B3
:1033E00066B123EA0606B60006F1A44606F53046A5
:1033F000D6F8047427F48037C6F80474126962B1F1
:1034000023EA0202920002F1A44202F53042D2F80D
:10341000046426F08076C2F804648A68920002F19F
:10342000A44202F53042D2F8006426F4407646EA1F
:10343000492646F48076C2F80064DCF800604A69E8
:10344000571EC6F30746B74209D9524EDCF8007042
:1034500006EB024227F47F063243CCF80020DCF86A
:10346000002012F0010F0A684FEA820202F1A44222
:1034700002F53042D2F800C42CF0030C55D04CF0C9
:10348000010CC2F800C44A6862B1920002F1A44281
:1034900002F53042D2F800C42CF0300C4CF0100C85
:1034A000C2F800C4CA6812F4803F0DD023EA0202B9
:1034B000920002F1A44202F53042D2F804C42CF486
:1034C000E02C4CF4803C0DE072B123EA0202920041
:1034D00002F1A44202F53042D2F804C42CF0E06CB0
:1034E0004CF0807CC2F804C4096911F4803F0BD011
:1034F00023EA0101890001F1A44101F53041D1F82D
:10350000042422F4E0226AE0D1B323EA0101890015
:1035100001F1A44101F53041D1F8042422F0E06228
:103520006EE000BFC1F804246DE04CEA490C4CF099
:10353000010CC2F800C44A6872B1920002F1A442C0
:1035400002F53042D2F800C42CF0300C4CEA491C91
:103550004CF0100CC2F800C4CA6812F4803F1BD0B3
:1035600023EA0202920002F1A44202F53042D2F8AC
:1035700004C42CF4E02C4CEA894C4CF4803C1BE055
:1035800041E0000000B40052220204040050005246
:1035900000A000520000FFFF82B123EA0202920065
:1035A00002F1A44202F53042D2F804C42CF0E06CDF
:1035B0004CEA896C4CF0807CC2F804C4096911F4AF
:1035C000803F0FD023EA0101890001F1A44101F5F8
:1035D0003041D1F8042422F4E02242EA894242F444
:1035E00040329FE779B123EA0101890001F1A4414A
:1035F00001F53041D1F8042422F0E06242EA896208
:1036000042F040728EE70F9911F0010F03D021684C
:1036100041F0010121600F9911F0020F04BF19B0B0
:10362000BDE8F08F296841F00101296019B0BDE8BB
:10363000F08FF8B516460D460446FFF77BF90746AE
:10364000206D022804D0142807D0242810D009E0C7
:10365000E068B0F1806F10D104E02868022818BF3C
:1036600003280AD04FF010014FF001006165F8BD4A
:103670002868012818BF0328F4D13B464FF0000208
:103680004FF020012046009605F058FB002818BF97
:10369000F8BD002060652946204605F039FA00286B
:1036A00018BFF8BDA96B71B129680422B1B1012915
:1036B00016D0022918BFF8BD216D142918BF242186
:1036C0000CD02165F8BD01223B4602212046009620
:1036D00005F034FB226802215162F8BD2265F8BD75
:1036E000216D242918BF1421EBD1F7E7F8B5002587
:1036F0000446FFF71FF9002C064608BF012547D0F6
:1037000000206065206D002842D1204600F0A8F816
:1037100041F28830A0656FF0FF00238AD4F814C00E
:1037200021680702656B07EB0343E26800EB0C2C92
:10373000E76943EA0C03D1F808C02A432D4D1A4328
:103740003A430CEA05031A438A602168226ACB686F
:1037500023F4E0231A43CA602368228EA16B41EA56
:10376000024119612268E16B5161D4E900130A68D2
:1037700000EB032022F4F85210430860A06D0022F1
:10378000202133460090204605F0D8FA050001D0EC
:103790002846F8BD2068626AC168521E21F0FF0108
:1037A0001143C1602068A168026822F04002114301
:1037B00001602068D4E90A12D0F80831114323F0DF
:1037C000A0421143C0F808112068016841F00101CE
:1037D0000160A069022804D12068816841F00201DB
:1037E0008160E068B0F1806F0CBF0120022020658D
:1037F000CEE70000F4F8E0F8F8B50D460446FFF710
:1038000099F8216D102604291EBF01206665F8BDB8
:10381000A16D0022034620460091202105F08EFA7A
:10382000002818BFF8BD88212165296808290AD118
:1038300022686968C2F8301121684E6221680A68FE
:1038400042F480120A6021682A680B6823F008039A
:1038500023F0405343F040531A430A60F8BD000080
:103860002DE9F041B4B0054600246846B8212E94F5
:103870002F94309431943294FCF7FEFD2868A0F127
:10388000A441B1F5A0411CBF34B0BDE8F0814FF0B8
:10389000007100201394CDE90010684600F018FE76
:1038A000002818BFFDF740FA2448016841F40011D0
:1038B0000160016801F400113391016841F4804115
:1038C0000160006800F4804033901D48016841F0B9
:1038D00020010160016801F020013391016841F08D
:1038E00040010160006802250326DFF8588000F0DF
:1038F000400033904FF47070CDE92E050A27404602
:10390000CDE930462EA93297FEF7F8FE0921309412
:103910006802CDE93161CDE92E052EA94046FEF7BA
:10392000EDFE40203297CDE92E0507482EA9CDE9BE
:103930003046FEF7E3FE34B0BDE8F081D4440258CF
:10394000E044025800140258001802582DE9F843C8
:10395000154688460446FEF7EDFF07462068B8F195
:10396000000F00F15006816CD0F8102107D0236DB4
:10397000042B09D0102161650120BDE8F8830821DE
:1039800061650120BDE8F883036C5B1CA364A36C34
:103990006364C4F84080036823F0405343F08053CD
:1039A0000360E068B0F1806F206808BF816407D0D1
:1039B000D0F8003113F4E06F14BF8164C0F8102117
:1039C0003B46012220460621009505F0B7F9002864
:1039D00018BFBDE8F8833078216C0870206C401C5B
:1039E0002064A06C401EA064A06C0028E8D10122D5
:1039F0003B4602212046009505F0A0F9002818BF9B
:103A0000BDE8F8830221226851622165BDE8F88390
:103A10002DE9F843154688460446FEF78BFF074616
:103A20002068B8F1000F00F1500607D0216D04297D
:103A300009D0102161650120BDE8F8830821616586
:103A40000120BDE8F883016C491CA164A16C61648C
:103A5000C4F84080016821F04051016001223B46DA
:103A600004212046009505F069F9002818BFBDE83B
:103A7000F883206C00783070206C401C2064A06CAF
:103A8000401EA064A06C0028E8D101223B46022120
:103A90002046009505F052F9002818BFBDE8F883CC
:103AA0000221226851622165BDE8F88314490A6841
:103AB00012F0040F07D1096801F00701814214BF19
:103AC00001200020704770B50A6822F007021043F9
:103AD0000860FEF72FFF0B4D0446286810F4005FC6
:103AE0000CD100BFFEF726FF001BB0F57A7F01D98D
:103AF000012070BD286810F4005FF3D0002070BD75
:103B00000C4802580448025810B501F08DFB0549D5
:103B10000968054AC1F30211515C01F01F01C84058
:103B200010BD00002044025804AD030862494DF85E
:103B3000044DDFF888C10B1D0A6809681C68DCF8B1
:103B400000C002F0030304F00102C1F30511CCF33D
:103B5000CC0C00291CFB02F200EE102AF8EE400A01
:103B60007ED09FED571A9FED572A574AB7EE000AAD
:103B700023B1012B3BD0022B4FD024E0534BD3F881
:103B800000C01CF0200F1ED0DFF844C11B6801EEFE
:103B9000901AC3F3C1011368F8EE612A2CFA01F1FF
:103BA00001EE901AC3F30801F8EE611A81EEA22A21
:103BB00001EE901AF8EE611A40EE811A71EE800A59
:103BC00062EE200A3EE001EE901A1168F8EE611AEA
:103BD000C1F30801C2EE212A01EE901AF8EE611A33
:103BE00040EE811A71EE800A62EEA00A2AE001EE30
:103BF000901A1168DFED372AF8EE611AC1F3080157
:103C000082EEA12A01EE901AF8EE611A40EE811AB6
:103C100071EE800A62EE200A14E001EE901A11683B
:103C2000DFED2D2AF8EE611AC1F3080182EEA12A18
:103C300001EE901AF8EE611A40EE811A71EE800AD8
:103C400062EE200A1168C1F3462101EE101AB8EEA7
:103C5000411A31EE001AC0EE811ABCEEE11A00E002
:103C600022E080ED001A1168C1F3064101EE101A3E
:103C7000B8EE411A31EE001AC0EE811ABCEEE11A1C
:103C800080ED011A1168C1F3066101EE101AB8EE59
:103C9000411A31EE000A80EE801ABCEEC10A80EDB6
:103CA000020A5DF8044B70470021016041608160A9
:103CB0005DF8044B70470000284402583444025811
:103CC000000000390024744C30440258004402586B
:103CD0000090D0030024744A20BCBE4B61494DF8CB
:103CE000044DDFF884C10B1D0A6809681C68DCF804
:103CF00000C002F00303C1F30531C4F30012CCF39A
:103D0000CC0C00291CFB02F200EE102AF8EE400A4F
:103D10007DD09FED561A564AB7EE000ACBB1DFEDC3
:103D2000551A012B01D0022B4ED002EE101A116849
:103D3000F8EE422AC1F3080181EEA22A01EE901AA0
:103D4000F8EE611A40EE811A71EE800A62EE200AE6
:103D50004FE0494BD3F800C01CF0200F1ED0DFF815
:103D60001CC11B6801EE901AC3F3C1011368F8EE81
:103D7000612A2CFA01F101EE901AC3F30801F8EE62
:103D8000611A81EEA22A01EE901AF8EE611A40EE55
:103D9000811A71EE800A62EE200A2AE001EE901A82
:103DA0001168DFED372AF8EE611AC1F3080182EEDF
:103DB000A12A01EE901AF8EE611A40EE811A71EE16
:103DC000800A62EE200A14E001EE901A1168DFED1D
:103DD0002D2AF8EE611AC1F3080182EEA12A01EE44
:103DE000901AF8EE611A40EE811A71EE800A62EEC6
:103DF000200A1168C1F3462101EE101AB8EE411AEB
:103E000031EE001AC0EE811ABCEEE11A00E022E0A9
:103E100080ED001A1168C1F3064101EE101AB8EEE8
:103E2000411A31EE001AC0EE811ABCEEE11A80EDA3
:103E3000011A1168C1F3066101EE101AB8EE411AB9
:103E400031EE000A80EE801ABCEEC10A80ED020A53
:103E50005DF8044B704700210160416081605DF8AE
:103E6000044B7047284402583C4402580000003973
:103E7000384402580024744A004402580090D00389
:103E80000024744C20BCBE4B61494DF8044DDFF852
:103E900084C10B1D0A6809681C68DCF800C002F0C8
:103EA0000303C1F30551C4F30022CCF3CC0C002969
:103EB0001CFB02F200EE102AF8EE400A7DD09FEDC6
:103EC000561A564AB7EE000ACBB1DFED551A012B50
:103ED00001D0022B4ED002EE101A1168F8EE422AE1
:103EE000C1F3080181EEA22A01EE901AF8EE611AE0
:103EF00040EE811A71EE800A62EE200A4FE0494BD3
:103F0000D3F800C01CF0200F1ED0DFF81CC11B68C6
:103F100001EE901AC3F3C1011368F8EE612A2CFA7E
:103F200001F101EE901AC3F30801F8EE611A81EE77
:103F3000A22A01EE901AF8EE611A40EE811A71EE93
:103F4000800A62EE200A2AE001EE901A1168DFED85
:103F5000372AF8EE611AC1F3080182EEA12A01EEB8
:103F6000901AF8EE611A40EE811A71EE800A62EE44
:103F7000200A14E001EE901A1168DFED2D2AF8EE08
:103F8000611AC1F3080182EEA12A01EE901AF8EE3F
:103F9000611A40EE811A71EE800A62EE200A116801
:103FA000C1F3462101EE101AB8EE411A31EE001AA3
:103FB000C0EE811ABCEEE11A00E022E080ED001AAA
:103FC0001168C1F3064101EE101AB8EE411A31EE44
:103FD000001AC0EE811ABCEEE11A80ED011A1168D8
:103FE000C1F3066101EE101AB8EE411A31EE000A73
:103FF00080EE801ABCEEC10A80ED020A5DF8044B27
:10400000704700210160416081605DF8044B70479A
:1040100028440258444402580000003940440258E1
:104020000024744A004402580090D0030024744CC9
:1040300020BCBE4B2DE9F043F94F80F48072F94C5F
:1040400003463D1FF848F94E0A43F94A89B04FEA42
:10405000241C29D0DFF8DC8383F4806959EA010944
:1040600073D083F4006959EA01096FD083F4805951
:1040700059EA01096BD083F400560E4368D083F4EB
:1040800000260E4300F0668183F480360E4300F074
:10409000998183F480450D4300F0AC8183F40043A3
:1040A000194300F0F4814CE0396801F0070105295B
:1040B00047D2DFE801F003111F562D00106810F001
:1040C000007004BF09B0BDE8F08306A8FFF72EFD1D
:1040D000079809B0BDE8F083106810F0006004BFD5
:1040E00009B0BDE8F0836846FFF7F8FD009809B015
:1040F000BDE8F083106810F0005004BF09B0BDE8BF
:10410000F08303A8FFF7C0FE039809B0BDE8F08371
:104110002968136801F0405113F0040F00D0C1B1B9
:10412000136813F4807F02D0B1F1805F17D012685A
:1041300012F4003F05D0B1F1005F04BF09B0BDE843
:10414000F083002009B0BDE8F0830CE045E080E09A
:10415000C1E01068C0F3C10024FA00F0F2E7604645
:10416000F0E73046EEE7D8F8001001F46001B1F551
:10417000800F2DD008DC29B3B1F5001FE1D1106804
:1041800010F00060AFD1DDE7B1F5C00FE9D0B1F5B7
:10419000000FD6D12968136801F0405113F0040FC5
:1041A00001D00029D5D0136813F4807F02D0B1F17B
:1041B000805FD4D0126812F4003FC2D0B1F1005F2A
:1041C000C0D0BEE7106810F000707FF47EAFB9E792
:1041D000106810F0005094D1B4E7D8F8001001F046
:1041E000E061B1F1007F2ED009DC31B3B1F1807F05
:1041F000A7D1106810F000607FF475AFA2E7B1F1AD
:10420000407FAED0B1F1806F9BD12968136801F077
:10421000405113F0040F01D000299AD0136813F411
:10422000807F02D0B1F1805F99D0126812F4003F14
:1042300087D0B1F1005F85D083E7106810F000707F
:104240007FF443AF7EE7106810F000507FF459AF61
:1042500078E7396801F4E041B1F5005F35D00ADC58
:1042600069B3B1F5805F7FF46CAF106810F0006047
:104270007FF439AF66E7B1F5405F3FF472AFB1F557
:10428000804F7FF45EAF2968136801F0405113F04E
:10429000040F02D000293FF45CAF136813F4807F51
:1042A00003D0B1F1805F3FF45AAF126812F4003FBF
:1042B0003FF447AFB1F1005F3FF444AF41E710680E
:1042C00010F000707FF401AF3CE7106810F0005070
:1042D0007FF417AF36E7396801F4E021B1F5403FCC
:1042E0002CD011DCE9B1B1F5803F1DD0B1F5003F14
:1042F0007FF427AF106810F000503FF423AF03A8FD
:10430000FFF7C2FD04981DE7B1F5802F1CD0B1F571
:10431000A02F7FF416AF116811F4003F7FF412AFA5
:104320000FE700F0A5FF0DE7106810F000603FF404
:1043300009AF6846FFF7D2FC019803E7106810F058
:1043400004007FF406AFFDE6106810F480707FF47F
:1043500006AFF7E6D8F8001011F4403122D0B1F5DD
:10436000803F25D0B1F5003F7FF4EBAE296813689C
:1043700001F0405113F0040F02D000293FF4E9AEE0
:10438000136813F4807F03D0B1F1805F3FF4E7AE90
:10439000126812F4003F3FF4D4AEB1F1005F3FF475
:1043A000D1AECEE6106810F000607FF49CAEC9E696
:1043B000106810F000503FF4C5AE03A8FFF764FD8D
:1043C0000598BFE6286810F480300DD0B0F5803F26
:1043D0007FF4B7AE106810F000603FF4B3AE6846EB
:1043E000FFF77CFC0298ADE6106810F000707FF4D7
:1043F0006CAEA7E6D8F8001001F0E041B1F1405FE3
:1044000039D019DC29B3B1F1805F2ED0B1F1005F52
:104410007FF497AE106810F000507FF470AF91E613
:10442000504402580090D00340787D010080BB00CA
:104430000044025858440258B1F1804F21D0B1F1E4
:10444000A04F7FF47EAE116811F4003F7FF47AAE86
:1044500077E600F0E9FE1C4909681C4AC1F3021125
:10446000515C01F01F01C8406CE6106810F000605C
:104470007FF45FAF66E6106810F004007FF469AE69
:1044800060E6106810F480707FF469AE5AE639680F
:1044900011F040510CD0B1F1805F0FD0B1F1005F4D
:1044A0007FF44FAE106810F000607FF442AF49E631
:1044B000116811F4003F7FF445AE42E6106810F039
:1044C00000707FF402AE3DE62044025804AD0308BC
:1044D0002DE9F05F044600680025FF4FDFF8FC93EC
:1044E000C04310F0006F2E4620D1606E58B1B0F579
:1044F000801F0DD0B0F5001F10D0B0F5401F18BFC1
:10450000012519D011E0386840F40030386013E01C
:10451000022104F1080004F0E1FC04E0022104F1AE
:10452000280004F07DFD050006D02E462088C043FB
:1045300010F4807F09D025E0606ED9F8001021F4D6
:1045400040110843C9F80000F0E7A06D052817D214
:10455000DFE800F003080E141400386840F400305F
:1045600038600BE0002104F1080004F0B7FC04E01F
:10457000002104F1280004F053FD054655B100E088
:1045800001252E462088DFF85883C04310F4806F41
:1045900009D032E0A06DD9F8001021F007010843DE
:1045A000C9F80000EEE7D4F8A400B0F5C00F22D09F
:1045B00008DC70B1B0F5001F10D0B0F5800F14D03A
:1045C000012519E0B0F5000F18BFB0F5200FF7D1A5
:1045D00011E0386840F4003038600CE004F1080065
:1045E0004FF0000104F07AFC04E0002104F12800FF
:1045F00004F016FD054635B12E462088C04310F460
:10460000006F0BD034E0D4F8A400D8F8001021F4E7
:10461000600141EA0000C8F80000EEE7D4F8A80005
:10462000B0F1407F22D008DC70B1B0F1807F10D0B3
:10463000B0F1007F14D0012519E0B0F1806F18BFF0
:10464000B0F1A06FF7D111E0386840F40030386065
:104650000CE004F108004FF0000104F03FFC04E01E
:10466000002104F1280004F0DBFC054635B12E469C
:104670002068C04310F0007F0BD022E0D4F8A800DF
:10468000D8F8001021F0E06141EA0000C8F800000D
:10469000EEE7E06C98B1102806D0202809D0302829
:1046A00018BF01250BD00BE0386840F400303860AB
:1046B00005E0022104F1080004F010FC054635B1C4
:1046C0002E462088C04310F4805F08D02DE0854836
:1046D000E16C026822F0300211430160F1E7E06D05
:1046E000B0F5005F19D005DC58B1B0F5805F0DD092
:1046F000012519E0B0F5405F18BFB0F5804FF7D144
:1047000011E0386840F4003038600CE004F1080033
:104710004FF0000104F0E2FB04E0002104F1280066
:1047200004F07EFC054635B12E462088C04310F4C7
:10473000005F0AD02DE0E06DD9F8001021F4E041CF
:1047400041EA0000C9F80000EFE7206EB0F5403FF5
:104750001DD008DCD8B1B0F5803F0BD0B0F5003FDC
:104760000FD0012514E0B0F5802F18BFB0F5A02FB1
:10477000F7D10CE004F108004FF0010104F0AEFBAA
:1047800004E0012104F1280004F04AFC054635B19B
:104790002E462088C04310F4804F0AD02EE0206EB1
:1047A000D9F8001021F4E02141EA0000C9F8000026
:1047B000EFE7D4F8AC00B0F1405F1DD008DCD8B111
:1047C000B0F1805F0BD0B0F1005F0FD0012514E095
:1047D000B0F1804F18BFB0F1A04FF7D10CE004F159
:1047E00008004FF0010104F079FB04E0012104F11D
:1047F000280004F015FC054635B12E462088C0433C
:1048000010F4004F0BD022E0D4F8AC00D8F8001020
:1048100021F0E04141EA0000C8F80000EEE7E06E58
:1048200098B1B0F1805F05D0B0F1005F18BF0125ED
:1048300005D00BE0386840F40030386005E0012115
:1048400004F1080004F04AFB054635B12E46206805
:10485000C04310F0807F09D020E0E06ED9F800104E
:1048600021F040510843C9F80000F0E7A06C98B16E
:10487000012806D0022809D0032818BF01250BD033
:104880000BE0386840F40030386005E0022104F1A4
:10489000080004F023FB054635B12E462068C043CE
:1048A00010F4800F08D032E00E48A16C026822F0AC
:1048B000030211430160F1E7DFF82CA0DAF80000F1
:1048C00040F48070CAF80000FEF734F88346DAF846
:1048D000000010F4807F09E02C4402585044025834
:1048E000584402584C440258004802580DD100BFA9
:1048F000FEF720F8A0EB0B00642801D9032505E0A2
:10490000DAF8000010F4807FF2D045B12E4620780E
:10491000DFF8F8A3C04310F0010F52D070E0FC485C
:10492000B4F8B010006801F4407100F4407088429F
:104930000CD0F7480168026821F4407142F48032DB
:104940000260026822F4803202600160D4F8B00094
:10495000B0F5807F18D1FDF7EDFF8246EC48016885
:1049600011F0020F08BF41F2883B0DD1FDF7E2FFC5
:10497000A0EB0A00584502D903252E46C7E7E448B4
:10498000006810F0020FF1D0D4F8B0104FF440706E
:104990008843E0481CBF016821F47C5109D00160C4
:1049A000DB48B4F8B0100268C1F30B011143016099
:1049B000ADE7D94A036802EA111123F47C5211438E
:1049C000EDE7A06F182819D006DCB8B1082808D088
:1049D00010280DD0012512E0202818BF2828F9D171
:1049E0000CE004F108004FF0010104F077FA04E054
:1049F000012104F1280004F013FB054635B12E46D1
:104A00002078C04310F0020F0AD021E0A06FDAF83E
:104A1000001021F0380141EA0000CAF80000EFE779
:104A2000606F062812D2DFE800F00F03090F0F0FA6
:104A3000012104F1080004F051FA04E0012104F11D
:104A4000280004F0EDFA054645B100E001252E46A8
:104A50002078C04310F0040F0AD022E0606FDAF82B
:104A6000001021F0070141EA0000CAF80000EFE75A
:104A7000D4F89000062812D2DFE800F00F03090FE7
:104A80000F0F012104F1080004F028FA04E00121CD
:104A900004F1280004F0C4FA054645B100E0012500
:104AA0002E462078C04310F0200F0BD02FE0D4F812
:104AB0009000D8F8001021F0070141EA0000C8F882
:104AC0000000EEE7D4F88C00B0F1405F1DD008DCA8
:104AD000D8B1B0F1805F0BD0B0F1005F0FD00125ED
:104AE00014E0B0F1804F18BFB0F1A04FF7D10CE047
:104AF00004F108004FF0000104F0F0F904E0022195
:104B000004F1280004F08CFA054635B12E462078D1
:104B1000C04310F0400F0BD02FE0D4F88C00DAF82F
:104B2000001021F0E04141EA0000CAF80000EEE781
:104B3000D4F89800B0F5406F1DD008DCD8B1B0F5BE
:104B4000806F0BD0B0F5006F0FD0012514E0B0F5E9
:104B5000805F18BFB0F5A05FF7D10CE004F108004A
:104B60004FF0000104F0BAF904E0022104F128003A
:104B700004F056FA054635B12E462078C04310F0B1
:104B8000800F0BD02FE0D4F89800D8F8001021F453
:104B9000E05141EA0000C8F80000EEE7D4F89C00BC
:104BA000B0F5C04F1DD008DCD8B1B0F5005F0BD018
:104BB000B0F5804F0FD0012514E0B0F5004F18BFBD
:104BC000B0F5204FF7D10CE004F108004FF00001E0
:104BD00004F084F904E0022104F1280004F020FA32
:104BE000054635B12E462078C04310F0080F0BD093
:104BF00020E0D4F89C00D8F8001021F4604141EA8C
:104C00000000C8F80000EEE7D4F88000B0F5805F3F
:104C100007D1022104F1280004F002FA002818BF8D
:104C20000126D4F88000DAF8001021F4405108433E
:104C3000CAF800002078C04310F0100F15D1D4F846
:104C40009400B0F5807F07D1022104F1280004F020
:104C5000E7F9002818BF0126D4F89400D8F800100E
:104C600021F440710843C8F800002068C04310F4E4
:104C7000002F19D1D4F8A00040B1B0F5803F0BD07F
:104C8000B0F5003F18BF01250CD00CE0002104F165
:104C9000080004F023F904E0022104F1280004F0E4
:104CA000BFF9054635B12E462068C04310F4802F69
:104CB0000AD024E0D4F8A000D8F8001021F4403144
:104CC0000843C8F80000EFE7D4F88400B0F5801F6F
:104CD00008D0B0F5001F0AD0B0F5401F18BF01255D
:104CE0000BD00BE0386840F40030386005E001215B
:104CF00004F1280004F094F905467DB12E462068A1
:104D0000C04310F4803F13D027E000005444025801
:104D10007044025810440258CFFFFF00D4F88400BA
:104D2000DAF8001021F440110843CAF80000E6E761
:104D3000206D28B1B0F5803F18BF012505D00BE0EC
:104D4000386840F40030386005E0022104F10800C2
:104D500004F0C4F8054635B12E462068C04310F073
:104D6000005F10D107E06E48216D026822F48032A6
:104D700011430160F1E7022104F1280004F050F929
:104D8000002818BF01262068C04310F4003F12D14C
:104D9000E06F70B1B0F5807F07D0B0F5007F1CBF29
:104DA000B0F5407F012504D004E0386840F40030BD
:104DB00038603DB12E4620686FEA000010F4801F75
:104DC00013D109E0E06FDAF8001021F4407141EAF4
:104DD0000000CAF80000EEE7206FD9F8001021F0BB
:104DE000004141EA0000C9F8000020686FEA0000B5
:104DF00010F4001F08D1A06ED9F8001021F08071C6
:104E000041EA0000C9F8000020686FEA000010F0D5
:104E1000804F0AD14348016821F4004101600168D4
:104E2000D4F8B42041EA0201016020686FEA000072
:104E300010F0004F07D13A48616D026822F04052ED
:104E400042EA0101016020686FEA000010F4000FDF
:104E500009D1D4F88800DAF8001021F4400141EAC1
:104E60000000CAF8000020794FF000056FEA00004A
:104E700000F00100284307D1002104F1080004F0EC
:104E80002DF8002818BF06462079C04300F0020024
:104E9000284307D1012104F1080004F01FF800287D
:104EA00018BF06462079C04300F00400284307D10C
:104EB000022104F1080004F011F8002818BF06468A
:104EC0002079C04300F00800284307D1002104F1F5
:104ED000280004F0A5F8002818BF06462079C04332
:104EE00000F01000284307D1012104F1280004F04C
:104EF00097F8002818BF06462079C04300F020002C
:104F0000284305D1022104F1280004F089F820B9D2
:104F1000002E04BF0020BDE8F09F0120BDE8F09FF7
:104F20004C44025810440258002804BF0120704726
:104F30002DE9F05FDFF85C9204468A46D9F800005C
:104F400000F00F0050450DD2D9F8000020F00F00FE
:104F500040EA0A00C9F80000D9F8000000F00F008C
:104F600050457DD120788C4D10F0040F0AD0206977
:104F7000296801F07001884204D9296821F0700184
:104F8000084328602078854E10F0080F0AD0606929
:104F9000316801F07001884204D9316821F0700154
:104FA00008433060207810F0100F0AD0A0693168F3
:104FB00001F4E061884204D9316821F4E0610843DA
:104FC0003060207810F0200F0BD07548E16902683E
:104FD00002F07002914204D9026822F0700211437B
:104FE0000160207810F0020F0AD0E068296801F013
:104FF0000F01884204D9296821F00F010843286075
:10500000207810F0010F45D06648A1682A6822F484
:105010007062114329606168022926D0032929D0D2
:10502000006801292BD010F0040F56D05E4F38686D
:1050300020F0070008433860FDF77CFC39688046A3
:10504000606801F03801B1EBC00F18BF41F2883B36
:1050500020D000BFFDF76EFCA0EB0800584500E033
:105060003BE010D90320BDE8F09F006810F4003F3A
:10507000DCD132E0006810F0007FD7D12DE010F4D1
:10508000807FD3D129E06068396801F03801B1EB45
:10509000C00FDFD1207810F0020F0AD0E068296835
:1050A00001F00F01814204D9296821F00F01084362
:1050B0002860D9F8000000F00F00504510D9D9F849
:1050C000000020F00F0040EA0A00C9F80000D9F8FB
:1050D000000000F00F00504502D00120BDE8F09F15
:1050E000207810F0040F0AD02069296801F07001BF
:1050F000814204D9296821F0700108432860207892
:1051000010F0080F0AD06069316801F07001814227
:1051100004D9316821F0700108433060207810F024
:10512000100F0AD0A069316801F4E061814204D90E
:10513000316821F4E06108433060207810F0200FDE
:105140000BD01748E169026802F070028A4204D964
:10515000026822F070021143016000F0E5F8134983
:105160002B682A68C3F3032302F00F02CB5C895C2F
:1051700003F01F0201F01F01D0400D4A20FA01F197
:1051800011600C4908600C480068BDE8F05FFDF74D
:1051900011BD000000200052184402581C4402585F
:1051A00020440258004402581044025804AD030839
:1051B000300300242C03002424030024DFF85CC007
:1051C0003F2230B40260164ADCF800C0131D0CF018
:1051D000070CC0F804C0DFF84CC01C1D156805F4AE
:1051E00070658560156805F00F05C560126802F0EE
:1051F000700202611A6802F0700242611A6802F4D9
:10520000E0628261226802F07002C261DCF8000094
:1052100000F00F00086030BC7047000010440258D6
:10522000184402580020005210B500F07DF80C4AD6
:105230000C490D4B1468D2F800C0C4F303220CF0E3
:105240000F0C8A5C11F80CC002F01F01074A20FA0B
:1052500001F10CF01F0021FA00F01860116010BD80
:105260001844025804AD0308300300242C03002422
:1052700010B500F059F8104A1049114B1468D2F8D3
:1052800000C0C4F303220CF00F0C8A5C11F80CC0B0
:1052900002F01F02D0400CF01F0220FA02F21A6046
:1052A000084B186008480068C0F30210085C00F062
:1052B0001F0022FA00F010BD1844025804AD030884
:1052C000300300242C0300241C44025810B500F0C5
:1052D0002BF8104A1049114B1468D2F800C0C4F3DF
:1052E00003220CF00F0C8A5C11F80CC002F01F02B4
:1052F000D0400CF01F0220FA02F21A60084B18602E
:1053000008480068C0F30220085C00F01F0022FA81
:1053100000F010BD1844025804AD03083003002407
:105320002C0300241C4402585E4930B45E480968CE
:105330005E4B11F038020CD00111082A06D0102A59
:1053400002BF5B4830BC7047182A0ED030BC0846FC
:105350007047196811F0200F04BF30BC70471968FE
:1053600030BCC1F3C101C84070475249524C01F1F1
:10537000040C0A680968DCF80050246802F0030C89
:1053800005F00102C1F30511C4F3CC04002914FB9C
:1053900002F200EE102AF8EE400A02BF002030BCF4
:1053A0007047BCF1000F9FED451A454AB7EE000A61
:1053B0001BD0DFED441ABCF1010F02D0BCF1020F8B
:1053C0004AD002EE101A1068F8EE422AC0F3080024
:1053D00081EEA22A01EE900AF8EE611A40EE811ADF
:1053E00031EE800A22EE000A4BE0D3F800C01CF038
:1053F000200F1BD01B6801EE901A1168C3F3C10384
:10540000F8EE612AD84001EE900AC1F30800F8EEE8
:10541000611A81EEA22A01EE900AF8EE611A40EEBE
:10542000811A31EE800A22EE000A2AE001EE901A7B
:105430001068DFED252AF8EE611AC0F3080082EE4D
:10544000A12A01EE900AF8EE611A40EE811A31EEBF
:10545000800A22EE000A14E001EE901A1068DFEDD7
:105460001B2AF8EE611AC0F3080082EEA12A01EEB1
:10547000900AF8EE611A40EE811A31EE800A22EEAF
:10548000000A106830BCC0F34620401C00EE900AB1
:10549000F8EE600A80EE201ABCEEC10A10EE100A87
:1054A00070470000104402580090D0030044025896
:1054B00040787D01284402583444025800000039E5
:1054C000304402580024744A0024744C20BCBE4B63
:1054D000002804BF012070472DE9F04704460078FA
:1054E000FD4FDFF8F89310F0010FFD4D58D03868EC
:1054F000D9F8001000F03800102819D0182804BF7F
:1055000001F00300022813D06068B0F5803F04BFAB
:10551000286840F4803014D010B1B0F5A02F1BD013
:10552000286820F480302860286820F4802008E073
:10553000286810F4003F33D06068002800F0A4828F
:105540002EE028606068D0B1FDF7F4F906462868BF
:1055500010F4003F08D023E0286840F48020286041
:10556000286840F48030ECE7FDF7E4F9801B6428FC
:1055700000F2D781286810F4003FF5D010E0FDF765
:10558000D9F90646286810F4003F09D0FDF7D2F992
:10559000801B642800F2C581286810F4003FF5D113
:1055A000207810F0020F67D03868DFF83883D9F818
:1055B000001010F0380014D0182808BF11F0030FA5
:1055C0000FD0E068B0B3296821F0190141EA00006A
:1055D0002860FDF7AFF90646286810F0040F2AD0BE
:1055E0001EE0286810F0040F03D0E068002800F0E7
:1055F0004B82E168286820F0190008432860FDF715
:1056000099F90646286810F0040F09D1FDF792F9C0
:10561000801B022800F28581286810F0040FF5D065
:10562000207CD8F8001021F0FE4141EA0060C8F863
:10563000000021E00AE0FDF77DF9801B022800F25E
:105640007081286810F0040FF5D0E9E7286820F091
:1056500001002860FDF76EF90646286810F0040F77
:105660000AD000BFFDF766F9801B022800F25981BD
:10567000286810F0040FF5D1207810F0100F4ED0EC
:105680003868DFF86482D9F8001000F03800082884
:1056900014D0182804BF01F0030001280ED0E069DF
:1056A0000028286827D040F080002860FDF742F9E4
:1056B0000646286810F4807F13D007E0286810F4AD
:1056C000807F1CBFE069802840F0DE8194F82000D4
:1056D000D8F8001021F07C5141EA0060C8F80000C1
:1056E0001DE0FDF727F9801B02287CD8286810F4FC
:1056F000807FF6D0EAE720F080002860FDF71AF9F5
:105700000646286810F4807F09D000BFFDF712F923
:10571000801B022867D8286810F4807FF6D1207893
:1057200010F0080F2ED0714E60690028306814D038
:1057300040F001003060FDF7FDF88046306810F061
:10574000020F1FD1FDF7F6F8A0EB080002284AD897
:10575000306810F0020FF5D014E020F00100306046
:10576000FDF7E8F88046306810F0020F0AD000BF5D
:10577000FDF7E0F8A0EB0800022834D8306810F0FC
:10578000020FF5D1207810F0200F2AD0A069002850
:10579000286813D040F480502860FDF7CBF8064607
:1057A000286810F4005F1CD1FDF7C4F8801B0228A4
:1057B00019D8286810F4005FF6D012E020F4805069
:1057C0002860FDF7B7F80646286810F4005F08D097
:1057D000FDF7B0F8801B022805D8286810F4005F98
:1057E000F6D1207800E089E010F0040F64D0404E3C
:1057F000306840F480703060FDF79CF88046306877
:1058000010F4807F0AD100BFFDF794F8A0EB0800E8
:10581000642873D8306810F4807FF5D0A068DFF872
:10582000D480012804BFD8F8000040F001000CD05B
:1058300008B1052818D0D8F8000020F00100C8F8F9
:105840000000D8F8000020F00400C8F80000A068AC
:1058500041F2883AF0B1FDF76DF80646D8F800003D
:1058600010F0020F0BD027E0D8F8000040F0040041
:10587000C8F80000D8F8000040F00100E5E7FDF7A7
:1058800059F8801B50454CD8D8F8000010F0020F92
:10589000F5D011E0FDF74EF80646D8F8000010F0FC
:1058A000020F09D0FDF746F8801B504539D8D8F8CB
:1058B000000010F0020FF5D1606A00287ED0DFF8FA
:1058C00038A039680AF1040801F038011829AAF152
:1058D000040774D0022812E01044025828440258E9
:1058E00000440258044402580C44025874440258BC
:1058F00000480258704402583044025811E02868A9
:1059000020F0807028600FD0FDF714F80446286856
:1059100010F0007F52D000BFFDF70CF8001B0228EA
:105920007ED90320BDE8F087FDF704F80646286815
:1059300010F0007F09D000BFFCF7FCFF801B02289D
:10594000EFD8286810F0007FF6D1E16AD9F800009E
:10595000A26A20F0F30020F4407040EA01101043E6
:10596000C9F8000094F834004FF4FE02238E1102AF
:10597000B4F838C04FEA402994F83C60581EACF1A6
:105980000103A6F1010CA9F5007606F47E46C0F3EA
:105990000800304302EA0342104301EA0C61084365
:1059A000CAF80000386820F001003860D8F800001C
:1059B000A16C6FF3CF0040EAC10001E087E03BE05B
:1059C000C8F800003968206C21F00C0108433860E9
:1059D0003868616C20F0020008433860386840F491
:1059E00080303860386840F400303860386840F4FF
:1059F00080203860386840F001003860286840F046
:105A000080702860FCF796FF0446286810F0007F3D
:105A10005DD100BFFCF78EFF001B022881D800E09B
:105A200004E0286810F0007FF4D050E0286810F0FF
:105A3000007F7FF471AF4AE0D9F800100128DAF84E
:105A4000000021D0A26A01F0030393421CD1E26A54
:105A5000C1F305118A4217D1216BC0F30802491E18
:105A60008A4211D1616BC0F34622491E91420BD18B
:105A7000A16BC0F30642491E914205D1E16BC0F310
:105A80000660491E814202D00120BDE8F087A16C6A
:105A9000D8F80000C0F3CC00814218D0386820F05C
:105AA00001003860FCF746FF4FEA0005FCF742FFB3
:105AB000A842FBD0A06CD8F800106FF3CF0141EAE8
:105AC000C000C8F80000386840F0010038600020CD
:105AD000BDE8F087704700002DE9F05F0446007ACA
